:020000040000FA
:200000000000042079180000A1180000A3180000A5180000A7180000A9180000000000007A
:20002000000000000000000000000000AB180000AD18000000000000AF180000B1180000A8
:20004000FD3B0000E13300007D590000B3180000B3180000B31800001D390000B3180000FC
:20006000D5470000B3180000B31800000D3D0000B31800000D3C0000B3180000B3180000DA
:20008000BD3D0000B3180000B3180000B3180000B3180000B3180000B3180000B3180000D9
:2000A000B3180000B3180000B3180000B3180000B3180000B318000000000000000000007E
:2000C000B3180000B3180000B3180000B3180000B3180000B3180000B3180000B3180000C8
:2000E000B3180000B3180000B31800000000000000000000B318000000000000B318000009
:200100000000000000000000000000000000000000000000000000000000000000000000DF
:200120000000000000000000000000000000000000000000000000000000000000000000BF
:2001400000000000000000000000000000000000000000000000000000000000000000009F
:2001600000000000000000000000000000000000000000000000000000000000000000007F
:2001800000000000000000000000000000000000000000000000000000000000000000005F
:2001A00000000000000000000000000000000000000000000000000000000000000000003F
:2001C00000000000000000000000000000000000000000000000000000000000000000001F
:2001E0000000000000000000000000000000000000000000000000000000000000000000FF
:2002000001F0FF01102A2BDB10F0070F08D010F8013B013A8B422DD010F0070F42B3F6D1A4
:20022000F0B441EA012141EA014122F007047FF000070023F0E80256083C85EA010586EA51
:20024000010685FA47F5A3FA87F586FA47F6A5FA87F68EB9EED1F0BC01F0FF0102F007024C
:2002600032B110F8013B013A83EA010313B1F8D10020704701387047002D06BF35460338AF
:20028000073815F0010F07D1013015F4807F02BF013015F4C03F0130F0BC0138704700BF73
:2002A00007EE900AFAEECA7A08B517EE900A06F067FC0FA3D3E9002306F0BAFC06F0CAFED3
:2002C00006F05EFC0CA3D3E9002306F0B1FC0CA3D3E9002306F0F6FA06F0BCFE07EE900AEA
:2002E000FDEEE77A17EE900A08BD00BFAFF30080CDCCCCCCCCCC0C409A9999999911794090
:200300008D976E128370454007EE900AFAEECA7A08B517EE900A06F033FC0BA3D3E90023F8
:2003200006F0CEFA02460B4609A1D1E9000106F0A9FD06F08FFE07EE900AFDEEE77A17EE02
:20034000900A08BDAFF300807B14AE47E17A943F333333333333134010B5054C237833B948
:20036000044B13B10448AFF300800123237010BD2003002000000000D082000008B5034BD8
:200380001BB103490348AFF3008008BD0000000024030020D0820000A3F5803A704700BFB2
:2003A000174B002B08BF134B9D46FFF7F5FF00218B460F461348144A121A07F033F80E4B17
:2003C000002B00D098470D4B002B00D098470020002104000D000D48002802D00C48AFF37A
:2003E000008005F03DFB2000290000F0F7F905F023FB00BF0000080000000000000000004D
:200400000000042020030020F8130020000000000000000000B585B00346002101AA44F215
:200420000100CDE90111039300F004F805B05DF804FB00BF72B6094B1B68DB0700D500BE35
:20044000BFF34F8F0649074BCA6802F4E0621343CB60BFF34F8F00BFFDE700BFF0ED00E0D1
:2004600000ED00E00400FA0572B6024A13680133136070473C030020034A1368013B136089
:2004800003B962B6704700BF3C03002010B50446006830B1002103F0D7FF54F8040F0028EA
:2004A000F8D110BD10B590F84C10094A013180F84C10044603468021203000F06BFD054B78
:2004C00022461978BDE81040002004F055B800BFA5040000E91300202DE9F041038804466D
:2004E0003BB1B3F5867F0AD182290DD00120BDE8F0814FF4867323800120BDE8F081002390
:2005000003800320BDE8F08101F06AFABFF35F8F1649174B0E6800220A601F781A70FFB295
:20052000BFF35F8F134D01F05FFA28680028E0D0DFF8448003E055F8040F0028D9D090F8D2
:20054000463026FA03F3DA07F5D590F8453047FA03F3DB07EFD500F043FD0028EBD02B68E4
:2005600042461846022100F015FDE4E7500300209413002040010020D905000010B4094A15
:20058000094C13681943116021780346012202FA03F30B43DBB2237004485DF8044B04F075
:2005A0000DB800BF50030020941300205401002010B5044690F8461090F8450001F0CEF996
:2005C00010B994F8440010BD01280ABF94F84400002080F0010010BD70B5044600F000FD39
:2005E00000B970BD04F12006304600F0F9FC05462046FFF7DDFF01280ED00028F1D1002DFE
:20060000EFD1304600F0D2FC0D4B224628461978BDE8704003F0B0BF002DE2D000253046F6
:200620002346084A84F84C507E2100F0B3FC064B284622461978BDE8704003F09DBF00BF8E
:20064000E8130020A5040000EA130020F8B503F0F3FE304B304C187003F0EEFE2F4B304FD1
:20066000187003F0E9FE2F4922682F4B08700025FF2139727B60FD60002A42D02B4E09E05E
:2006800091F84600F9683A72834054F8042F0B43FB60B2B392F8463092F84510926C03F05E
:2006A0001F0343EA41131F2BC6BF03F01F0331464FF0A04103F5E07342F08C0241F8235065
:2006C000236893F8461093F8450001F005F9226892F8463092F8450003F01F0343EA401004
:2006E000012103F075F82168387A91F8452082424FF00103C4D0FF28C2D054F8042F002A52
:20070000C8D10B48002103F09FFEBDE8F840044801F038B9EA13002040010020E813002098
:2007200040030020E91300207D050000000300505401002030B5174B83B000221A6002F0E8
:20074000A7FE00BB002002F0BFFE134B134A93E80300FF250090ADF804100624002310481F
:20076000ADF8005069468DF802408DF8043003F063FA58B901210A4803F0B2FA084803F09E
:20078000A3FA03B030BDFFF745FEDBE7FFF742FEF0E700BF5403002078770000D107000017
:2007A00080770000014B1868704700BF5403002008B5064A13680133136000F01FFD00B995
:2007C00008BDBDE8084000F0F9BC00BF54030020042800D07047FFF7EBBF00BF10B54F4C1A
:2007E00003F03EFDFFF7A6FF04F004F803F04EFE4B48002103F028FE00F092FB05F0DEF8EC
:2008000000F028FC04F052F903F032FD03F0F4FE02F0B0F902F0C0F92368022B11DC03F0A0
:2008200043FD4048FFF732FE05F0F2F803F048FE044605F0F5F814F0FF0FF7D103F03AFD82
:20084000F4E7394A39493A4803F050FD394803F0C5FE2368022BE2DD334A3449344803F0DF
:2008600045FD354B3548196803F040FD2368022BD5DD2D4A2D492E4803F038FD304B31489F
:20088000196803F033FD2368022BC8DD264A2749274803F02BFD2C4B2C48196803F026FD6B
:2008A0002368022BBBDD204A2049214803F01EFD27484AF6CD3103F019FD2368022BAEDDA5
:2008C000194A1A491A4803F011FD22481A2103F00DFD2368022BA2DD134A1449144803F00D
:2008E00005FD1D4B1D48198803F000FD2368022B95DD0D4A0D490E4803F0F8FC184803F031
:20090000F5FC2368022B8ADD164801F08FF92368022B84DD0A2003F05FFE80E7A80100202D
:2009200098010020307F0000887700009077000098770000A877000000800000C87700005C
:20094000E47F0000D87700005C780000E4770000F07700000C7800008E1300202C78000066
:200960003C780000A813002070B590F82D50012D04460FD91F2503F0A3FE0246B0FBF5F1AD
:20098000234601FB152104F10C00054ABDE8704000F000BBE91C01258D40013DEBE700BFA5
:2009A000310A00002DE9F04714460D468A6894F82C900646606BD2E9007801F00FF96868B5
:2009C00003F050FEA968164802F0A4F81548294602F0A0F8606B01F0D1F860B10023A385A2
:2009E0002046FFF7C1FF4B46324641463846BDE8F04701F0ADB904F10C0000F0D7FA214671
:200A0000094801F0EBF82146084802F083F84B46324641463846BDE8F04701F099B900BFA1
:200A2000640100207C010020C00300207001002008B32DE9F047044682B0406B01F09EF86A
:200A40000546A8B1406803F023FE63490C2003F0EBFB0121072003F0D9FB00F063F9002801
:200A60000ADAAB6823B1052022462946FFF79AFF02B0BDE8F087704703F022FBDFF85C81D7
:200A800090F80290D8F8047003F01AFB064603F021FB01463046B84703F0DAFBD8F81860C9
:200AA0000746B04770BB002F4AD1D8F81CA0D04740BBD8F8087003F00DFBB84700285DD048
:200AC00002281FD0AB68002BD2D00420CCE703F075FE6FF028031E1A03E003F06FFEC642D3
:200AE00002D5D0470028F8D0D04700285ED0D8F81030032101A89847032803D19DF8063025
:200B00004B4524D0AA68002AB2D094F82D300133DBB2052B84F82D3094F82C3008D8127A8C
:200B20009A4224D8224629460120FFF73BFF9FE70133DBB2002184F82C3084F82D10EEE7E7
:200B4000D8F8086003F0C6FAB0470028B8D1AB68002B8DD094F82C3000200133294684F840
:200B60002C3084F82D002246FFF71CFF80E72046FFF7FAFE686803F06FFD79E703F01EFE9E
:200B80006FF018073F1A03E003F018FEC74202D5D0470028F8D0B047002898D1D0470028E4
:200BA00095D1D8F814309847002890D0A96800293FF45EAF94F82C300133DBB2002284F893
:200BC0002C3084F82D200A7A9A42D0D8224629460220FFF7E7FE4BE7A8130020A47F0000E4
:200BE0002DE9F04106460D200F4603F029FB054601F04CF801210B2003F008FB3C4800F092
:200C0000BDFFD0B1044603E001F00CF80446A0B12946201D00F0A6FF03462046002BF3D0FC
:200C2000606B00F0F5FF07281EDD394630460123BDE8F041062201F08BB82E4801F04EFFDC
:200C400004460028F1D02946201D00F085FF002304F13000C4E90C30A38500F08BFF244802
:200C6000214600F08DFFDBE7234801F037FF054650B3224801F032FFA86008B303F0CAFCE7
:200C80006860C8B10520D5F8088003F0C7FAC8E9006710F0FF000ABF082388F8080088F8D2
:200CA0000830606B294600F06BFF606B00F066FF854217D0BDE8F081A968104801F02AFF01
:200CC0000D48294601F026FF606B00F0A1FF0028ABD12146064800F081FF2146054801F071
:200CE00019FFA2E72046BDE8F041FFF73DBE00BFC0030020700100207C01002064010020D1
:200D000008B5054801F0D8FE044801F0D5FEBDE80840034801F0D0BE7C0100206401002019
:200D20007001002010B501210B2003F06FFA024BBDE810405B68184794780000014B9B68F5
:200D4000184700BF94780000014B1B6A184700BFA47F0000014B5B6A184700BFA47F000005
:200D600010B50D4B82B01B6898470C4B04469B6A01A91920984701280BD0002C0198B8BF1A
:200D800015248028D4BFC4EB0000C4F1800002B010BD002002B010BD94780000A47F0000AE
:200DA000FFF71EBF00B583B003F08EF9032802D103B05DF804FBFFF7C1FF0028F8DB0D201B
:200DC00003F03EFA1F4900F0CDFEE8B10C2003F037FA1C4900F0C6FE0028E9D100F060FF92
:200DE000B8B1072003F01AFA0028E1D00223ADF8043003F065F9144B8278DB688DF80620ED
:200E0000032101A89847D3E703F022FA0028DDD1CEE700F06BFF072003F000FA18B90B4B3D
:200E20009B689847C4E70223ADF8043003F048F9054B8278DB688DF80620032101A898470F
:200E4000EDE700BFA8130020A47F0000E47F000030B50D4C83B0A56A69461920A84748B946
:200E600001A90420A84738B100F008FFFFF748FF236A984703B030BD0199E36A21F0020191
:200E8000019104209847EFE7A47F0000F0B5038883B0054633B14A2B18D188291BD0012017
:200EA00003B0F0BD1B4800F069FE044630B1A168201D00F089F92468002CF8D1164B012230
:200EC0001A704A2301202B8003B0F0BD00230380032003B0F0BD0F48019200F04FFE044655
:200EE0000028EED0019A031D9A4205D02468231D002CE6D09A42F9D10648084E214600F051
:200F00006DFED4E90523376832600BB1E06998473760D6E7A004002095130020D00C002090
:200F200010B5064B064800241C7000F023FE21460448BDE8104003F087BA00BF9513002029
:200F4000A00400208801002070B50E4C049E25784661C0E90623044635B9A1600A482146FB
:200F6000BDE8704000F00CBE084D094B2E682B60043000F029F92E6021460348BDE87040BD
:200F800000F0FEBD95130020A0040020D00C00208801002010B5044C82B024680094FFF718
:200FA000D3FF02B010BD00BFD00C002010B50A4B1B7804463BB9C0E9033321460748BDE800
:200FC000104000F00BBE043000F020F921460348BDE8104000F002BE95130020A0040020E8
:200FE00038B50C4B1D7804466DB90B4800F0C6FD38B1A04202D10BE0844209D000680028EA
:20100000FAD1012038BDBDE83840043000F0F0B8002038BD95130020A004002010B5044656
:20102000C0B204F065FC204610BD00BF70B570B10E46451E002404E0A64206D004F058FCEC
:20104000013415F8010F0028F6D1204670BD0446FBE700BF704700BF10B5FFF7A3FB0B4BAC
:201060001A68D2E9003192680B44191A52B1D2E9003423441B1A9268994228BF1946002AB3
:20108000F5D14318024A136010BD00BFA8040020A40400202DE9F843038805465BB3592B97
:2010A0002CD187292FD0822920D12C4FDFF8B4803C684FF00009CCB1002603E0A368264679
:2010C000A3B11C46204604F005FC0028F6D0E0682246882103F050FA03464046002B2AD087
:2010E00003F06CFAA3682646002BEAD159232B800120BDE8F883194A1360F7E70023038078
:201100000320BDE8F883154F3968002019B9EDE789680120D9B1CB689342F9D000B139600A
:201120008B68002BE2D0D868904207BF9B688B6019469B68F5E7E360A3686EB1B3603B68B8
:20114000C4F808902BB1FFF787FF3C68B3E73960CCE7034A1360C9E73B60F1E7A8040020AA
:20116000A40400209801002010B50446104803F025FA1049E3680A684BB142B194420FD0BB
:20118000134601E09C420BD09B68002BFAD10A4BA2601B68E3600C60BDE81040FFF75CBFD4
:2011A000054B1B68E360BDE81040FFF755BF00BF98010020A8040020D00C0020014803F09E
:2011C000FDB900BF9801002010B5044604F06CFB2046BDE81040FFF7C7BF00BF10B50446D2
:2011E00004F06AFB2046BDE81040FFF7BDBF00BFC068B0FA80F04009704700BF024B18683C
:20120000003818BF01207047A804002010B5124B19688142044614D00B462BB19A68A24274
:2012200006D01346002BF9D10023C4E9023310BDA2689A6049B1FFF70FFF0023C4E90233B1
:2012400010BD82681A60002AF5D1044B00221A600023C4E9023310BDA8040020A40400201C
:20126000014B1888704700BF1403002000283ED0037A022B30B410D00378022B15D0037928
:20128000B3B10024C37913F0030318BF012301B10C6002B1136030BC7047C579447A037927
:2012A00065B90CB9012BF2D0DBB100231C46EEE7447A14F0030418BF0124E3E7C4B1032D43
:2012C00037D1032C2ED0022C24D143BB022D2DD00123032D24D1A4F10204B4FA84F4640915
:2012E000D5E7023C012C8CBF00240124CFE770474BB9022D08BF0123EAD1A4F10304B4FAA3
:2013000084F46409C3E7032D01D0022D02D123461C46BCE7002BC8D1022DDAD1EDE7012337
:201320000024B4E7002BC0D10123D4E701231C46ADE7022DC7D1002BF1D1022C4FF0010314
:20134000DBD11C46A3E700BF30B500230B608B80437D0D46D9075CBF01232B70037E012B3E
:2013600083B0044623D901AA694604F11000FFF77DFF009B0BB10223EB70019B0BB10223CF
:201380006B70E37D03F00303022B03D0032B14BF00230823AB70637E03F00303022B03D0D5
:2013A000032B14BF002308232B7103B030BDC37D9A0706D0437E9B0703D0C28B838B9A427E
:2013C00002D000232375CEE701230375CBE700BF02280CBF012307230B441A78FF2A184613
:2013E00003F1FF3303D18142F7D1012070470020704700BF30B583B06946FFF7A5FF9DF804
:2014000000309DF801509DF802409DF803109DF804209DF8050002332B4423440B44134433
:20142000184403B030BD00BF70B4437882780578C478DB00120102F0100203F00803134319
:20144000027905F0070564012B4304F020049201234302F0400213430B7043798579467AAD
:20146000C479027A03F001036D0043EA861305F00205A0002B4300F00C001201034302F038
:201480003002134370BC4B70704700BFF0B583B00E4607466946FFF757FF314607F1100074
:2014A000FFF7C2FF9DF80030012B04BFBB7EB3709DF801300CBF03220222022B08D1BB8B3F
:2014C000B354531CB98BDBB2090A0232F154D2B29DF802304BB35D1E13443D44DBB21446B6
:2014E0000132D2B215F8011931559A42F7D19DF80320022A08D1FA8BF2545A1CF98BD2B2DE
:20150000090A0233B154DBB29DF8040078B1C41D18443C44C0B21A460133DBB214F8015979
:20152000B5549842F7D103B0F0BD1346DFE7184603B0F0BD30B40278437802F00700C2F3FC
:20154000C005C2F300140870C2F34010C2F380124D708C7003F00105C3F34004C8700A71DA
:20156000C3F38100C3F301129B094D718C71C87130BC0A724B727047012943DD2DE9F04166
:2015800086B00F4603A914460546FFF7D3FF03AB03CB9DF811201B882383206161616AB3BC
:2015A000AE1C03A802AA01A9FFF760FE9DF81380B8F1000F43D0029B002B31D1B8F1020F95
:2015C000A38367D0B8F1030F4DD09DF81580B8F1000F2CD0019BBBB9A38BE383B8F1020F9A
:2015E0004DD0B8F1030F31D0701B3B1A8742C4E90E6300DA002006B0BDE8F081AB78A37649
:20160000EE1CCEE700207047717816F8023B029A03EB01239BB2E383002ADFD1A383DDE7DB
:20162000727816F8023B03EB02239BB2C6E71E4904F1080000F090FAA4F81E80D4E71A4932
:20164000204600F089FAA4F81C80BEE706F10800034604F1080213F8011D02F8011BB34259
:20166000F9D10646C0E706F108000346621E13F8011D02F8011FB342F9D10646A5E70A49B8
:2016800004F1080000F068FA7378237216F8023B6372A9E70449204600F05EFA7378237052
:2016A00016F8023B637090E7A078000030B591B002F0F6FC044602F007FD6A4601462046D6
:2016C000FFF75AFF00283ED0044602F0CDFCD0B39DF810100B2002F099FD9DF813100720B6
:2016E00002F094FD9DF817308BB1BDF81C50FFF7B7FD854205D0BDF81C204FF6FF739A4264
:2017000021D19DF817006946FFF762FEB0B102A90C2002F089FD9DF815303BB14FF6FF71FB
:20172000062002F073FD204611B030BD9DF81A10062002F06BFD204611B030BD69460D20DE
:2017400002F072FDE3E74FF0FF34ECE7F8B505460B2014460E46A84700232074A37496B342
:20176000E37463750820A847002701232376A07567740620A847A076FFF772FDE083092033
:20178000A84701280CBF3B4603236376FFF768FDA0830A20A84701281AD066B90323E3759F
:2017A000637E022B0CD0E37DA3F10203B3FA83F35B092375F8BD0223E375637E022BF2D124
:2017C00001232375F8BD0720A8476675E074C9E7E775E5E730B591B00546FFF741FD4FF691
:2017E000FF74A0423AD040220021684605F01AFE02F02EFD6A4601461A48FFF7A7FF02F048
:2018000027FD18B3ADF800400C2002F019FD014602A800F0A1F902F043FC0E9002F054FC34
:20182000034668460F93FFF7E5FD044615B9204611B030BD02F0E8FB80B102F041FC01468F
:201840006846FFF723FE204611B030BD0D2002F0F7FC0146684600F07FF9D5E74FF0FF3412
:20186000E5E700BF1D4200000120FFF7B3BF00BF0020FFF7AFBF00BF0649074A074B9B1A4C
:2018800003DD043BC858D050FBDC03F0F5FEFEF787FD0000DC8200000000002020030020F2
:2018A000FEE7FEE7FEE7FEE7FEE7FEE7FEE7FEE7FEE7FEE700F01F030121C0F3471099401F
:2018C00000F066B808B501F0E7FE00B108BDBDE8084001F097BE00BF30B583B01446022368
:2018E00001F01F0100228DF8063014F00C0341EA4015ADF8042006D0042B25D0082B27D07A
:201900000C2B02D103238DF8043014F0030304D0022B15D0012B02D103238DF805300E4AB7
:2019200001A9284601F0C2FE2306284603D401F0BBFF03B030BD012101F04AFF03B030BD29
:2019400001238DF80530EAE701238DF80430DCE702238DF80430D8E7B518000001F01F01BD
:2019600041EA40101F28CABF054B4FF0A04300F01F00D3F8101521FA00F000F001007047F8
:20198000000300500146014800F0FAB8AC04002070B505460C480E4600F0F0F890B1044677
:2019A00001E0246874B1237AAB42FAD1E36816EA0301F6D063682846002BF2D0984724689A
:2019C000002CF0D170BD00BFAC04002008B5034800F0D0F8BDE80840FFF774BFAC040020B8
:2019E000EFF3108072B6704780F31088704700BF032824D8124B00EB40001A181B5C9178B4
:201A0000527803F01F0343EA421361B11F2BC6BF0C4903F01F034FF0A041012202FA03F3E5
:201A2000C1F80C3570471F2BC6BF064903F01F034FF0A041012202FA03F3C1F808357047E0
:201A40005877000000030050032824D8124B00EB40001A181B5C9178527803F01F0343EAF7
:201A6000421361B11F2BC6BF0C4903F01F034FF0A041012202FA03F3C1F8083570471F2B9A
:201A8000C6BF064903F01F034FF0A041012202FA03F3C1F80C357047587700000003005055
:201AA00070B41A4A1A4D0023012440FA03F1C90712D59178B9B11178567801F01F0141EA04
:201AC00046111F29C6BF01F01F012E464FF0A04604FA01F1C6F808150133042B02F1030212
:201AE000E3D170BC70471178567801F01F0141EA46111F29C6BF01F01F012E464FF0A046EE
:201B000004FA01F1C6F80C15E6E700BF58770000000300500E4A30B40E4D02F10C0403208B
:201B20001378517803F01F0343EA41131F2BC6BF03F01F0329464FF0A04103F5E0730332C8
:201B4000944241F82300EBD130BC0F20FFF7A8BF58770000000300500B684A6842600360D3
:201B6000704700BF08B5082205F040FCB0FA80F0400908BD00230360704700BF0068704794
:201B80000368DBB110B4002400E0134699420FD01A681C46002AF8D100230B600368CBB127
:201BA0001A461B68002BFBD111605DF8044B70470A686CB1226000221A60EDE700230B6070
:201BC00003684BB11A461B68002BFBD1116070470260F0E70160E8E70160704703689BB164
:201BE00010B4002400E0134699421A6805D01C46002AF8D15DF8044B704734B12260002259
:201C00001A605DF8044B704770470260F7E700BF03682BB100201B680130002BFBD1704770
:201C20001846704700B10068704700BFF0B170B50024104E054654B1E3070DD5295D3046A0
:201C400002F054FB072C10D00134002CF4D12978304602F04BFBF7E72E2002F0BDFC295D5E
:201C6000304602F043FB072CEED170BD024802F03DBB00BFB8780000A878000008B502F0AD
:201C80001FFD014B187008BD96130020034B197806204A1C1A7002F0B9BA00BF96130020E4
:201CA000F8B5FEF77FFD104E0746344600250C2002F0C6FA2146FFF755FF103420B90135DA
:201CC000102DF4D10020F8BD062006EB051502F0A5FA2B7B8342F5D1A868381AB0F5206FA4
:201CE0008CBF00200120F8BDB0040020F8B5174E0024374635460C2002F0A2FA2946FFF782
:201D000031FF1035F8B90134102CF4D10F2407EB0414254654F8100D6168A268E368A64250
:201D20000FC5F6D1062002F079FA3873FEF73AFD0346BB600C2002F083FABDE8F840014683
:201D40000248FFF709BF002CE1D1EBE7B004002040B120B40D4611461A46034628465DF81C
:201D6000045B1847704700BF38B50388044603B3B3F5437F27D11A48FFF73AFA38B3194B7A
:201D8000194903F1080513F8012F042A02F1010002D90A68012A1CD0AB42187001F10401B3
:201DA000F1D10F48FFF71AFA4FF443732380012038BD0B484FF42071FFF706FA4FF4437338
:201DC0002380012038BD00230380032038BD012038BD064B06480021C3E900110270E0E7C0
:201DE000540600206706002070060020680600209713002038B505460948FFF7BFFE58B1A9
:201E0000044601E024683CB12946201DFFF7AAFE0028F7D0204638BD0024204638BD00BF4C
:201E2000AC06002070B50C4D0646002428463146FFF798FE083568B90134092CF6D1074A91
:201E40000749084802F052FA074802F04FFA4FF6FF7070BDA0B270BDCC010020C078000095
:201E6000C878000098770000D07800002DE9F0471F48204F204E02F039FA07F140053C4656
:201E80002046FFF7CFFF08340146304602F02EFAAC42F5D10A20194DDFF868A0184EDFF8A5
:201EA000688002F099FB05F180093846FFF7BAFF0146504602F01AFAA5F1100403E002F0A6
:201EC00015FAAC4209D034F9021BFF293046F6D1404602F00BFAAC42F5D104F110050A2018
:201EE00002F07AFB4D4507F10807DED1BDE8F087F4780000CC0100200C790000C80500204C
:201F000020790000147900001879000038B5054691B11548FFF732FE044620B9002038BDD5
:201F20002468002CFAD02946201DFFF71BFE0028F6D004F10C0038BD0C48FFF71FFE0446CF
:201F40000028EBD02946201DFFF70CFE0028F0D12468002CE2D02946201DFFF703FE0028D4
:201F6000F6D004F10C00E6E7CC070020AC0600202DE9F04F048887B00546002C00F0EB801E
:201F8000B4F5237F40F0E180914BDFF8A4A25F68DFF8A092DFF8A0828E4E0120B847CAF8E5
:201FA00000000220B8470346DAF80000C9F80030FEF776F90346D9F80000C8F80030FEF791
:201FC000A3F9034600203360B84780B200F0CCFD814A824B10605B68002098478049DFF815
:201FE0005CE2D1F80090D8F800207E4BDFF850C2DFF850824EF829200028B8BF033009F1A4
:2020000001028010366843F82960022A4CF829000A60C8F8000040F3B180734E734F306889
:202020001A680390D3E9010A3B6804930597704B039F1F60BB18049FDFF80C926D4A034429
:202040005344BA46DEF80070DCF80000BA44D9F80070384482FB037BABEBE373DEE901BEA7
:20206000D344DCE901AC039F33605044FB1A6044DFF8B0C1049FCCF80070DE44002B82FB6C
:202080000ECADFF8C8B1594F82FB00C2B8BF5B42A2EBE070AAEBEE7E4FF0010C0022132B93
:2020A000C7F800E0C9F800008BF800C00A600DDD049BA3EB0E0EBEF1000FB8BFCEF1000EDE
:2020C000BEF5FA7F02DB01238BF80030DFF8809149494846032300F8023BFFF73DFD059BED
:2020E000366819683C4BC9F80C101A684348D8F80030C9F818300021C9E90462FFF706FF13
:2021000000285BD03E493F4A3F4BC1F800901C21DB68118098473D4A3D493E4802F0E6F836
:20212000D9F80C300093D9E90423D9F818103A4802F0DCF800238BF800303848FFF74EF843
:2021400001202C8007B0BDE8F08F002403202C8007B0BDE8F08F31484FF4C071FFF734F8FA
:202160002F4B1A884FF651539A4216BF4FF42374032001202C8007B0BDE8F08F1C4B1A4E35
:202180001B683268DFF8C4B09B1A002BB8BF5B42132B06DC9BF80030002BCED0134B059341
:2021A00094E7124A1F4B05921B6812689B1A002BB8BF5B42B3F5FA7FECDB84E7134A1A4943
:2021C000144802F093F8194802F008FAB2E700BF5C800000500600200C0900204C81000025
:2021E000640600204006002038060020900600203C06002056555555A8130020B005002074
:20220000B4130020B8130020E47F0000C0780000907700009877000028790000D80800209A
:202220008E13002094060020C878000074790000A40600204C060020A8060020980600202E
:20224000F0080020E8080020EC0800209A130020C80600202DE9F0431F4A2049204887B0CD
:2022600002F044F81F4802F0B9F91F48FFF786FC30B3DFF86490DFF86480194F0446002605
:20228000201DFFF7CFFD054604F10C00FFF7CAFD4A46034641463846059302F027F8228B02
:2022A0000292B4F916200192227D00923146059B0E482A4602F01AF824680136002CDFD163
:2022C000054A0649064802F011F8094807B0BDE8F04302F083B900BFC0780000907700000B
:2022E0009877000088790000AC060020CC7900000C7A00002DE9F84381460F48BDF820806D
:202300000F4616461D4600F0E9FB98B1044649460430FFF721FC394604F10C00FFF71CFCDE
:202320002675E582A4F8188021460448BDE8F843FFF726BCBDE8F88318020020AC060020D0
:202340002DE9F043048885B00646002C31D040F255239C4240F08A807448FEF749FF002817
:2023600000F09380724D2B7803F0FF04002B71D1704BDFF820825B682046984780B200F037
:20238000F3FB98F80030072B40F283806A4B6B4A6B491460012018806A4A6B4888F80040B6
:2023A0002C7001F0A3FF694802F018F93480022059E0644A6249664F634801F097FF65483E
:2023C00002F00CF9FD6A0C210120A847BB6A03A9012098475B4A5A495B4801F087FF039993
:2023E0005D4801F083FF21460620A847554A0546002841D15249544801F078FF5748294678
:2024000001F074FF564800F057FB5648FFF7B2FB554900242346224608460094FFF76AFF63
:20242000FFF718FF514A2346144600218B420CBFFF2500250131082924F8025BF6D1013358
:20244000082B02F11002EFD1494801F087FD3A4B01221A8035484FF42071FEF7B5FE40F211
:2024600055233380012005B0BDE8F08300230380032005B0BDE8F0833E49334801F036FF85
:2024800021463D4801F032FFBCE7012005B0BDE8F083DFF80491394F2046FFF7A9FA48461C
:2024A000012300F8023B3049FFF756FB2E4909F10A00FFF751FB324801F018FF09F10204C4
:2024C00009F10A0514F8011B384601F00FFFAC42F8D10A2002F080F8174A2A491388A9F8F3
:2024E0001430C1F80090284828490133002413801623038089F81240CB6820469847114A21
:202500000F49114801F0F2FE98F800102048013101F0ECFE2046FFF797FA98F8003003481C
:20252000013388F80030FEF759FE93E7FC080020991300205C8000008C130020D00700206F
:2025400090770000C078000098770000BC7A0000A47F0000507A0000647A0000A47A00000E
:2025600018020020AC060020A8130020B805002005270000C8780000807A0000B878000001
:20258000D87A0000B4130020B8130020E47F0000F07A000098130020B006002030B50F496C
:2025A0000F4D83B0002423462246084600942C70FFF7A0FE0B4A2346104600218B420CBFB8
:2025C000FF2400240131082920F8024BF6D10133082B02F11002EFD103B030BDA81300207E
:2025E00099130020B80500202DE9F04182B01646BDF820801F460546FFF7FCFB98B10446D8
:2026000017490430FFF7AEFA50B9238B434507D2B4F91630DB1B002BB8BF5B42052B15DC27
:2026200002B0BDE8F0813B46324629462846CDF80080FFF75FFE0B4A0B490C4801F056FE22
:202640000B4802B0BDE8F04101F0C8BF054A0649064801F04BFE074801F0C0FFE782DFE7D3
:20266000A8130020C07800009077000098770000107B00003C7B000070B5044686B01C48E6
:202680001C4D01F033FEA01CFFF7CCFB01461A4801F02CFE284601F0A1FF184801F09EFF85
:2026A000284601F09BFF04F11400FFF7BBFB014604F11C000591FFF7B5FB024604F1240077
:2026C0000492FFF7AFFBB4F92E600346208E94F82C400290DDE90421CDE90046084801F0E0
:2026E00005FE284606B0BDE8704001F077BF00BF607B0000787B000014790000D07B0000D2
:20270000087C00002DE9F041044684B001200D461746FFF76DF92678B64AB749B74801F0B5
:20272000E5FDB7482A46314601F0E0FD731E052B00F2AA81DFE803F0101E83687403B14BDF
:202740001A884FF651539A4200F045810120FFF77BF904B0BDE8F081042001F05FFD40B2A4
:202760004F30C0F2DF80A74B1A884FF651539A42ECD145E00120FFF73BF99E4A9E499F488D
:2027800001F0B4FDA04801F029FF2046FFF774FFFFF760FDA37A0133A372042001F03EFDBE
:2027A00043B213F14F0FC0F2BD80A2890092A27A39463846FFF718FF8E4A8F498F4801F078
:2027C00095FD924801F00AFFA01CFFF72BFB904B0546012204F11C0043F82520FFF722FBCE
:2027E000854200F000818B4BB4F92E2000EBC50105EBC00523F8112023F81520FFF736FBA7
:202800000120FFF721F9A1E7142D58D0794A82497A4801F06BFD2946804801F067FD95E7E5
:2028200054F8020F616802AB03C302A8FFF7FAFA7B4A135C002B89D0013B135486E704207F
:2028400001F0ECFC40B24F306CDB764E20686168A268E36835460FC5337820696169A26925
:20286000032B07C57FF472AFB01CFFF7DBFA0546B01CFFF7D7FA01466B486C4C01F036FD7F
:2028800071696B4801F032FDB1696A4801F02EFD7369F268684884FB0317DB172946C3EB15
:2028A000271301F023FDD6E9042384FB0314DB172946C3EB2413614801F018FD46E704200B
:2028C00001F0ACFC4B4A4C4906464C4801F00EFD5B4801F083FEA71C464A4749474801F0E1
:2028E00005FD3846FFF79EFA0146564801F0FEFC404A4149414801F0F9FC04F10A00FFF782
:2029000091FA0146504801F0F1FC3A4A3A493B4801F0ECFC76B2618A4C4801F0E7FC16F18A
:202920004A0F08DA334A3C49344801F0DFFC484801F0DCFC0AE747493846FFF713F9002890
:2029400000F09680444800F0B7F84448FFF712F9414800F0C3F8044600283FF4F7AE051D19
:202960002846394604F10C08FFF7F6F839464046FFF7F2F80123237523832146E6823748E8
:20298000FFF7FEF82846FFF74DFA05464046FFF749FA184A18490646184801F0A7FC30481B
:2029A00001F01CFE134A1449144801F09FFC228B237D0192B4F916200092294632462948BD
:2029C00001F094FC0B4A0C490C4801F08FFC264801F004FEBAE6254B1B68002B7FF4B6AE06
:2029E000FFF7DCFDB2E60B4B05EBC505FF2223F8152003E7C07800009077000098770000B7
:202A0000387C00008E130020807C00009C7C000070060020B8050020C8780000707D00008D
:202A200068060020D4070020C07C0000F31ACA6BE07C0000F87C0000107D0000407D000075
:202A4000887D0000A47D0000BC7D0000D07D0000647C0000A81300200C020020CC070020EE
:202A6000E87D0000307E0000707E0000D00700200A4B0B4A1C600B4B158001463846DC6844
:202A8000FFF744FAA04761E6074A0849084801F02DFC3146074801F029FC5AE6B4130020C5
:202AA000B8130020E47F0000C0780000C878000098770000B87E000010B50446428840688A
:202AC000002104F0AFFC23886288A06802FB03F2BDE81040002104F0A5BC00BF30B44588CC
:202AE000ADB14368002202E00132AA420CD0194601330C78002CF7D101230B7005888068AF
:202B000002FB050030BC7047002030BC70472846F8E700BF30B44488826854B18A420CD0FA
:202B20000588002301E0914208D00133A3422A44F9D14FF0FF3030BC704700234268D15CFD
:202B40000029F6D00020D05430BC704783688B4208D84288008800FB023081422CBF0020BA
:202B600001207047002070474FF4616303FB00F0000B7047054B10B51B689847044B5B6866
:202B80009847044BBDE810405B681847A47F00005C780000E47F0000034A04499079D379A7
:202BA00003EB00230B807047A81300208E130020064B074A01211960D2F8503513F0FF0395
:202BC000FAD1C2F8FC3F0120704700BF1010004000100040A1B1192810D8DFE800F00D7738
:202BE0000F0F6E65605B453F0F3A0F0F0F36322E2A0F26221E1A1713002070470120704707
:202C0000022070477D230B600020704700200860704710230B60002070470A230B6000208D
:202C2000704720230B600020704703230B600020704708230B6000207047D8230B600020FD
:202C400070471A230B60002070470B230B6000207047244B1B780B6000207047224B93F991
:202C600000300B6000207047204B214A012082B018601368002BFCD00020106012681D4B5D
:202C80000192019AD3F8483503F07F035B420B6002B07047184B5B790B6000207047164BFE
:202CA0005B780B6000207047134BDB7800200860002BA1D001230B6070470F4B1B780020D7
:202CC0000860002B98D004230B607047094B0B4AD3F80835A2FB03239B080A33DBB20B6064
:202CE000002070479B1300209C130020141000401C1100400010004044020020CDCCCCCCA8
:202D00000120704770B582B0FEF76AFEBFF35F8F1C4B1B78ABB11C4B1C4902224FF0FF34CF
:202D2000C1F80843C3F88021C3F88020BFF34F8FBFF36F8FBFF35F8F02B0BDE87040FEF7FC
:202D400053BE134903F0FF020A600968114B019101991A601A680D490B4B00924FF0FF3502
:202D600002224FF44054009EC1F80853C3F88021C1F804431A60BFF35F8F02B0BDE8704029
:202D8000FEF732BE4402002000E100E0001000403011004034110040144BD3F8FC0F28B1C3
:202DA000D3F85035DBB2032B01D000207047104B1B7803F0FF0073B10E4B1B78053B7A2B8B
:202DC000F3D80D4B1B68002BEFD10C4B1868B0FA80F040097047074A1378053B7A2BE5D8F3
:202DE00092F8800080F00100704700BF0010004044020020100900203011004034110040ED
:202E00000D2801D001207047042A05D121B1034B1B680B6000207047022070479409002055
:202E200070B51B4CD4F85055EDB2032D82B028D0184B1948194AC4F804051949C3F810255E
:202E400001264FF00062C3F81415C3F80465C3F80425FFF757FFD4F8003243F01003C4F872
:202E60000032D4F80032022D43F40023C4F8003209D00C4B0C4A002119601B680193019BD8
:202E8000166002B070BD094B1E6002B070BD00BF0010004000F0014010090020381100402A
:202EA0004C80004058110040041000400810004070B52F4D2F49304A304B00242C6084B0BF
:202EC0002D680095009D0C600968019101991460126802922A4D029A1C6029781B68039357
:202EE0004B1F7A2B039A38D88C1E2246691C04F08BFA2B195B783F2B2DD89B00DBB2214EE9
:202F0000214A3370D2F84835204A03F07F035B425BB299B20420137001F078F931780320B3
:202F200001F074F91A4B2A781A491A74D1F84C055860D1F8481599605200DA605D681048A1
:202F400081220021023D1D6004F06CFAFFF768FF204604B070BDFF23D1E7812221462846A1
:202F600004F060FAFFF75CFF204604B070BD00BF381100400C1100403411004030110040C0
:202F8000100900209B130020001000409C130020940900200080004010B5038804461BB326
:202FA00040F2D332934224D1822901D0012010BD124A1378053B7A2B16D8114B1B6813B941
:202FC00092F8803083B102F02BFD01F0B1F801F067F88021FFF76CFF002805DD80B201F050
:202FE00059F8084BDB68984740F2D3332380012010BD00230380032010BD00BF10090020B4
:20300000301100405C7800007D2910B50C4609D801460A48A31C00F8013B224604F0F4F9E8
:20302000002010BD064A0749074801F05FF921467D22064801F05AF9012010BDA809002014
:20304000407F0000507F000098770000547F000070B4164B1649174C0F22C3F810258A7896
:203060000A3A02EB8202C3F808250879CD798A794979120642EA0522024342EA0142C3F84D
:203080006C2640F2022600250B48C3F834657F2140F20122C3F83845C3F83C55C3F814052B
:2030A000C3F81815C3F8502670BC70470010004044020020211001000800000608B5084B0E
:2030C000D3F8FC2F1AB1FFF7ABFE012008BD0122C3F8FC2FFFF7BCFFFFF7A2FE012008BD74
:2030E0000010004030B585B0FFF7E8FF104A11491148124C0023136015680395039D0B6068
:203100000D680295029D03600368019301230198236001E00B6813B91368002BFAD0044A84
:20312000044B10681B68B0FA80F0400905B030BD48110040441100404C1100402C100040F9
:2031400010B5072867D8DFE800F01A2A666648525A04364A3648C9B25171D0F8FC3F5BB133
:203160001179D479937952791B0643EA04230B4343EA0243C0F86C360024204610BD012991
:203180004FD000294AD12B4A294B01211160D3F8504514F0FF04FAD1C3F8FC4FEDE7A1F1B2
:2031A0000B030F2B3AD8214A214BC8B29070D3F8FC2F002AE0D01F4A01201060D3F850453A
:2031C00014F0FF04FAD10A3901EB8101C3F8FC4FC3F80815FFF772FFCFE731F007041DD157
:2031E000124BC1F380011970FFF78CFDC5E731F0010413D10D4BC9B2D970204610BD0B4ADB
:203200000B4BC9B25170D3F8FC2F002AB4D0C3F80C150024B1E70124204610BD02242046FC
:2032200010BDFFF74BFF0024A7E700BF44020020001000401010004010B57D2884B04BD839
:203240002C4CFFF73BFFE378002B3FD163782A4A2A49DBB20120C2F80C350860D2F850350E
:20326000DBB2022BFAD12649264BC2F8043500230B600868019001980B66086E02900298BB
:203280008B648B6C0393039BD2F8003223F01003C2F80032D2F80032012143F48023C2F854
:2032A0000032116001F08AFA6FF002031C1A01F085FAE042FBD4104AD2F85035DBB20B2B8F
:2032C000FAD0FFF7ADFD002004B010BDFFF70AFF0028BBD10220F7E70B4A0C4904460C48E8
:2032E00001F004F821460B4801F000F8012004B010BD00BF44020020001000400C100040CB
:203300000C110040A8090020407F0000507F000098770000707F000010B50C46FFF774FE74
:203320002046BDE81040FFF787BF00BF10B51A491A481B4A1B4C00230B6003704B602370A2
:203340008B6082B0CB600B741360136800934FF080430121009819601368002BFCD000245A
:2033600014601368019321460F48019B01F06CF8214681220D4804F055F80D4B0122C3F845
:20338000FC2FFFF765FE0B4A1378DBB21370FFF7B9FC204602B010BD940900209B1300209E
:2033A000000100409C13002034020020100900200010004044020020074A1378053B7A2BF7
:2033C00007D8064B1B6813B992F880007047012070470020704700BF100900203011004085
:2033E000154B1B7803B1704700B503F0FF02134B196883B029B9124B1A6882B903B05DF8B0
:2034000004FB1A601B6800930E480F4B009A012283F8802003B05DF804EB01F0CFB81960AD
:203420001B68019381220848019B03F0FBFF03B05DF804EBFFF7F4BC440200203011004075
:2034400034110040340200201009002010B568B90E4CA368012262703BB1D3E9002300202D
:20346000A2609847A368002BF7D110BD0128FCD1064C2369A070002BF7D0D3E900230120CA
:20348000226198472369002BF7D110BD280A002010B50B4C237882B013B1852002B010BD5B
:2034A00008486360A3602361E36000F03BF8019000F044F801980123237002B010BD00BFC1
:2034C000280A00204D34000038B5154DAB78044673B110B14368012098470020FCF7C4FFF7
:2034E000EB680133EB600020BDE83840FCF7C4BF03F0FF00FCF7B8FF64B12A6942B194423A
:2035000008D0134601E09C4204D01B68002BFAD122602C61EB68002BE2D100F025F8DFE75B
:20352000280A0020044A137923B901211060918018467047852070473C0A0020084B1A6834
:20354000D20704D4C02283F8002301221A60054A4FF080410123C1F818351370704700BF2B
:2035600000E100E0EB13002010B4094B094A0021196083B01B680193019C4FF0804102205E
:203580000123C1F80403136003B05DF8044B7047040100400800004010B5174B1A6882B05E
:2035A00062B10021154A19601B68507900934FF080410123009CC1F8083398B1104B1A6846
:2035C000BAB100221A601B6801934FF0804202210A4B0198C2F808131B68012002B0BDE8EB
:2035E00010401847116853718847054B1A68002AE7D102B010BD00BF000100403C0A002077
:203600000401004030B41F4C94F86A3082B0002B33D104F12F03204604F15F01FF2203F891
:20362000012F8B42FBD14FF0FF3222600123072B88BFE11803F1010340F8042F88BF81F816
:2036400058200C2BF3D11049104B0020C0228880606683F8062340221A600D4B0D4A1860CC
:203660001B680193019D01214FF0004384F86A10C2F8043302B030BC7047082002B030BCEF
:20368000704700BF440A0020A80A002000E100E07C61004000600040034B93F86A0000387B
:2036A00018BF0120704700BF440A0020F0B4454F3B1893F93030002B5DDA91F802C0CCF34B
:2036C000400CBCF1000F0CBF0823002307EB8304A4F104040CBF0C26082602E001339E4292
:2036E0004CD954F8045F0135F8D13C1847F8232084F83030BCF1000F4FD08A7854071AD41F
:20370000D5074ED41F284C7887BF2F4D00F01F0202464FF0A04502F5E072A40045F82240D5
:203720002A4DC40800F0070C2E5D012202FA0CF232432A558A7812F0020222D09B0003F11E
:20374000804303F5C0430978D3F8104524F44F3424F44074C3F8104502020904D3F81005A2
:2037600001F4403102F47C520A430243C3F810250020F0BC70470820F0BC70470420F0BCBF
:203780007047083B1F44097897F8603043EA811387F860301046F0BC7047FA1882F85800BF
:2037A000ABE71F2887BF084A00F01F0404464FF0A04202EB8402D2F8004724F00204C2F8C2
:2037C0000047ADE7440A002000030050A80A002070B4324C251883B095F93030072B22DD4A
:2037E000234493F858309B09032B46D0012B0CBF4FF400324FF440321F288ABF284B4FF004
:20380000A04300F01F0003EB8000D0F8003723F44033C0F80037D0F800371A43C0F8002795
:2038200003B070BC7047DAB2072AF9D8980000F1804000F5C04003F140029200D0F8106521
:2038400092B202F1804202F5C04246F00106C0F810650020106012680192019A0029DFD0FC
:2038600095F9302054F82220002AD9D00D49012202FA03F3C1F80433D2E71F288ABF084A13
:203880004FF0A04200F01F03D2F8102598BF0346DA4002F0010202321204ADE7440A0020FB
:2038A0000003005000600040194B034493F93030072B13DD1F288ABF164B4FF0A04300F059
:2038C0001F0003EB8000D0F8003723F44033C0F80037D0F80037C0F800377047DAB2072A81
:2038E00014D810B49A0002F1804202F5C0420A4CD2F81005012120F0010001FA03F3C2F8BD
:203900001005C4F808335DF8044B7047704700BF440A002000030050006000402DE9F04F14
:20392000002289B0CDE9022216461546704B714C7148012204E0043383424FEA420211D009
:2039400019680129F7D1D4F804131142F3D01D60196800910433834246EA020600994FEA66
:203960004202EDD1654B1A68012A07D016F0FF0F17D1002E32DB09B0BDE8F08F00221A6061
:203980001B6801934FF0A042019BD2F810255C4B0292D3F81035039316F0FF0F1ED046F03B
:2039A0000046584F01250024A30003F180432E4203F5C0434FEA45050BD0D3F8100557F87E
:2039C0002420D3F81015C0F30520C1F3014102B190470134082CE7D1002ECCDA4FF0FF33F5
:2039E000494D0DF1100ACDE906330022CAF804200492A5F16408454C0027012614F9010B92
:203A0000431C32D0C0F3C20E08AB03EB0E0C00F007031CF8081C06FA03F31942C2B200F020
:203A20003F0022D008EB0009910999F9309058F82990B9F1000F4CD003294CD01F288BBFB6
:203A4000DFF8BCE04FF0A04E02F01F0202460EEB82021CF818ECD2F800C71EEA030FCCF36C
:203A6000014C1BD1BCF1030F3CD0A542C6D1002F81D04FF0A0430299D3F81035204A994232
:203A8000D2F8102503D1039991423FF474AFDDE90401CDE90232CDE90601ACE7BCF1020FCB
:203AA000E3D1032904D0B9F1000FDED0C847DCE74FF4403CD2F8003723F44033C2F80037DE
:203AC000D2F8003701374CEA0303FFB2C2F80037E9E70329C9D11AF80EB04BEA030B0AF824
:203AE0000EB0ABE70329DED14FF4003CE2E700BF0061004000600040206100407C61004075
:203B000000030050440A0020A80A0020A40A002010B54FF0804386B0D3F80443620705D5F2
:203B2000D3F8082103F58473002A4ED1A30603D52A4B1A68002A3FD1600603D5284B1A6874
:203B4000002A2FD1210602D5264B1A680ABBE20502D5254B1A6892B9A3050ED5234B1A680F
:203B60005AB100221A601A68214B0592059A1B68022006B0BDE81040184706B010BD002226
:203B80001A601B4A1B68049301201368049A9847E2E700201860164A1B6803931368039A21
:203BA0009847D4E700221A60124A1B68029301201368029A9847C5E7002018600D4A1B6826
:203BC00001931368019A9847B6E700221A600A4A1B6800931368009A9847A7E714010040E2
:203BE000180100401C0100402001004024010040B80A0020B40A0020B00A002008B5FFF7FC
:203C000087FFBDE80840FFF7C7BC00BF074B0849084A0020186082B01B680193019BD1F8BE
:203C200008051368C0B202B0184700BF00D1004000D00040BC0A002070B443791E4C1F4EFC
:203C400003EB430546F82320655D8DBB90F904308A78002B24DB03F1604303F56143520134
:203C6000D2B283F8002390F90430002B07DB144D03F01F0601225B09B24045F8232003687B
:203C80000A88C3F8082543790879C97803EB4303E218012550709170E554002070BC7047DB
:203CA000084D03F00F0352011D44D2B22A76DAE7082070BC704700BFC00A0020C40A00206F
:203CC00000E100E0FCEC00E00368044A01211960437903EB43030221D1547047C00A00202E
:203CE00010B403680022C3F8002183B0D3F80031026801930123019CC2F8443311B102684C
:203D0000C2F8043303B05DF8044B70472DE9F041274F284EDFF8A08084B000244FF480352A
:203D2000D7F804332B4211D056F824200023E0B262B1C7F84853C7F8085346F8243056F881
:203D400024300393D8F80030039A98470134032C4FEA4505E4D1164BD3F80423D10702D55F
:203D6000D3F80021C2B9124BD3F80423920710D5D3F804216AB10022C3F80421D3F8042112
:203D80000D4B0192019A1B68052004B0BDE8F041184704B0BDE8F0810022C3F80021064AF4
:203DA000D3F80031029304201368029A9847DAE700B0004040B10040C40A002010B5074C70
:203DC000236882B03BB1064B1B6898470023236023680193019B02B010BD00BF00010140A6
:203DE000C80A002070B5114B114A1D781160DDB9104E027801211970C6F80C2541680446F4
:203E00004FF47A720023C803490C03F073F9C6F80405237A084A5B01DBB282F810334FF432
:203E200080331360284670BD082070BD9E130020C80A00200000014000E100E0044B05490A
:203E400001220220C3F804231A600870704700BF000001409E13002010B504460020FCF79F
:203E600003FB0E4A1378072B11D80D492370581C1070D1F80805012202FA03F30343C1F87F
:203E8000083500240020FCF7F7FA204610BD04240020FCF7F1FA204610BD00BF9D130020A2
:203EA00000000140034B044A00F5C07043F82020704700BF000001403546526E014B002225
:203EC0001A607047CC0A002010B5044600F030F90D4A0E4B1188186800F03AF974B121461B
:203EE0000D2000F0A1F90A490C2000F09DF9094B002108469B689847012010BD06490D20F7
:203F000000F092F9EFE700BFB8130020B4130020A81300205C780000A078000030B50E4BBA
:203F20001C6883B0B4B100F0BBF8054600F0CCF801460C20019100F083F900900D2000F0A5
:203F40007FF9DDE900210346A446284603B0BDE83040604703B030BDCC0A0020014B186098
:203F6000704700BFCC0A0020704700BF704700BF002070470020704700207047012070478C
:203F8000704700BF0120704701207047704700BF00207047704700BF00207047704700BFEB
:203FA000704700BF00207047012070470120704700207047704700BF2DE9F0410E4A0F4BBE
:203FC00016781F88F419802C03DD00242046BDE8F081DFF8308032464146054603F014FAA1
:203FE000074B1B7833443A46A81958FA83F103F00BFA2046BDE8F0819F1300209013002055
:2040000092130020D00A002070B4134B134D144A2C781B781288234452FA83F39BB21A1828
:20402000802A15DC013B1BB2002B0CDB0D4A591C1E1811443244013B11F8016D02F80169E6
:204040001BB25E1CF7D120442870012070BC7047002070BC704700BF921300209F130020F8
:2040600090130020D00A0020084A138883420BDB10B407490C8880B21B1A2044088013805D
:2040800001205DF8044B7047002070479013002092130020014B1880704700BF9013002028
:2040A000044A054B12781B780448134450FA83F0704700BF921300209F130020D00A0020DE
:2040C00000487047D00A0020014B1888704700BF901300200549064A064B127808781B8826
:2040E000104453FA80F080B2704700BF9F130020921300209013002010B50A4B0A4C0B49E9
:20410000002220461A605A609A60DA601A615A61FDF722FD04F108000449BDE81040FDF733
:204120001BBD00BFCC130020BC130020A078000004480549054A002303800B801370FFF74F
:20414000DBBF00BF92130020901300209F13002070B5802982B00B4A0B4D0C4E01900C46C2
:204160004FF0000328BF8024137033802B80FFF7C3FF01990648224603F046F920462C8045
:2041800002B070BD9F1300209013002092130020D00A0020F0B40C4B0C4A1C685D689F684B
:2041A000DE68C6600460456087601C695D694561046154689068D36812680A604C608860E6
:2041C000F0BCCB60704700BFCC130020BC13002070B40C4B026844688568C668DE601A6040
:2041E0005C609D60026944695C611A61064B0C6848688A68C968D9601C6058609A6070BC8B
:20420000704700BFCC130020BC130020024B23F810100120704700BFCC130020014B33F8A5
:2042200010007047CC13002008B5044B0C3803EBC000FDF791FC012008BD00BFBC130020A5
:20424000024B0C3803EBC000704700BFBC13002001490248FDF786BCA0780000C4130020E1
:2042600008B5FDF7B3FBBDE80840FDF753BC00BF08B5FCF7EBF9002000F028FA01F04CFB32
:2042800000F002FC4FF08052064BD2F8A800D2F8A4205A604CF6F4613622D87019809A703A
:2042A00008BD00BFA81300200148002100F0CCB87802002010B5FDF793FB0446BFF35F8FF6
:2042C00000F050F900B930BFBFF35F8F2046BDE81040FDF789BB00BF0AB90020704708B5B4
:2042E00008461146FCF7A2FE002008BD0FB400B583B004AA054852F8041B019200F08EFC85
:2043000003B05DF804EB04B0704700BF580200202DE9F843DFF8A880D8F800408442054691
:204320000F4645D0002C36D0234601E0002B32D01B689D42FAD173B3204EAB7BD6F8009025
:20434000F3B10023AB73002C34D0A54209D0A37B13F0010F20462A464FF0870101D000F0F9
:2043600031F82468002CF0D1AB683BB1BD4205D035600022832105F10C009847D8F800407C
:20438000A5420AD02CB12368AB420CD01C46002CF9D1C6F80090BDE8F8832B68C8F80030E2
:2043A000C6F80090F7E72B682360C6F80090F2E72346C0E7AB68002BD8D1EAE7D00C0020D0
:2043C000D40C00208368BBB170B504460B4E0220A073346004F10C000D469847023801285F
:2043E00004D9832D02D00123A37370BD21462046BDE87040FFF78CBF704700BFD00C002022
:2044000038B50B4A0B4B146800221A707CB1012501E024685CB1E37B002BFAD0E5812046F0
:2044200000228221FFF7CEFF2468002CF3D138BDD40C0020A3130020024B1878421C1A70E8
:20444000704700BFA113002070B50E4D2C68844207D00A4634B1234600E01BB11B689842BA
:20446000FBD170BD0028FCD0074E04600121002334688173838181212860FFF7A3FF346067
:2044800070BD00BFD40C0020D00C002030B4074B07480849084A094C8A251D7000230370E5
:2044A0000B601360237030BC704700BFA1130020A2130020D40C0020D00C0020A0130020B1
:2044C0002DE9F041224D2B78FBB9224E3378C3B12148224C027802EB420704EB870101320F
:2044E00002F01F02013B0270886814F82770D1F80480DBB2337058B1812F1ED0827BD2076E
:204500001DD428781844BDE8F081FFF779FFDCE7134A14685CB9F4E7A37B13F0010F204607
:204520004246394601D0FFF74DFF24685CB12B78002BF1D0FFF764FFEEE701238373424669
:204540003946FFF73FFF337828781844BDE8F081A3130020A2130020A0130020500B0020F2
:20456000D40C0020024A034B10781B7818447047A2130020A313002070B40D4D2C78202C5A
:2045800012D00C4B0C4E1B78234403F01F0303EB430301342C7006EB8304C4E9012006F830
:2045A0002310002070BC7047012070BC704700BFA2130020A0130020500B002018B1837B18
:2045C000013B012B00D97047024A01231370C373704700BFA3130020FCF720BD10B504468F
:2045E00002F028FF01462046FCF720FDBDE810400A20FCF713BD00BF08B50448FEF75CFAF0
:20460000BDE808400248FEF757BA00BF6C0200206002002038B50E48FEF760FA044678B189
:204620000C48FEF75BFA0546206058B1FFF7C4FC05F19A01A5F8800005F18200FFF7AAFD8F
:20464000204638BD214602482C46FEF763FAF7E7600200206C020020006800F19A018230F6
:20466000FFF798BD10B5014604460748FEF76EFA00B910BD21680548FEF74CFA21460248A5
:20468000BDE81040FEF746BA600200206C02002010B5014604460948FEF758FA00B910BDAC
:2046A0002468B4F880102046FFF752FD04F19A0104F18200BDE81040FFF78ABD60020020CC
:2046C00008B501F01FFA80B208BD00BF0F4B0121002219601946C3F80021D1F80031002BE6
:2046E000FBD0D1F80805094A0023C0B2C1F80031D2F80031002BFBD0D2F80815012340EA21
:20470000012080B2536001F0CFB900BF00D000400023013A0271016043718371704700BFFB
:2047200010B4817942790479521A224208D003464A1C00682240405C9A715DF8044B704760
:204740004FF0FF30F9E700BF10B4164A164B17490020106083B012680192019AD3F81025FC
:2047600022F00F0242F00802C3F81025D3F8082542F00302C3F80825D3F804254FF48034E8
:2047800022F003024FF48070C3F80425C3F80443C1F88001086001221A6003B05DF8044B53
:2047A000704700BF408100400080004000E100E0014BC3F84005704700800040034A044BA2
:2047C00001211160D3F84405704700BF4480004000800040064B1A6802B97047002282B05F
:2047E0001A601B680193019B02B000F005B800BF40810040FFF7A8BF10B5084C206858B166
:20480000D0E90131002222609847236823B1BDE810401868FFF7CCBF10BD00BF58120020BF
:2048200010B4174B83B000220124ADF8042000921946C3F82CD61C60D1F80031002BFBD0F5
:20484000002401230E4AC1F800414B60D2F80431002BFBD0002401230949C2F80441936092
:20486000D1F81431002BFBD002AB03EB40000023C1F8143130F9080C03B05DF8044B7047ED
:204880000070004001207047802801D00120704730B4144B14490120C3F8000500224FF459
:2048A000003509240720C3F81855C3F810450825C3F814250224C3F82815C3F820050320F5
:2048C000C3F82425C3F83815C3F83055C3F83425C3F8F045C3F8F425C3F8300630BC0120B6
:2048E000704700BF00700040001202002DE9F0410488752C064607D07C2C37D0A4B10023C0
:2049000003800320BDE8F081DFF8D0802E4D98F800202E4F00233B602B6012B32C4CE2564E
:20492000002A41DB2B6832E02A4F274DFFF784FD294B3A6818702C60002A43D02346244CE8
:20494000984604F8038000219368802098472B6801332B6057F82320002AF2D1DBB21F4A98
:204960001370752333800120BDE8F0811A4B1B788B4216D1144D164CDFF86080134F2B6817
:204980003A68E15C01F07F010132E1543A6098F80020013393422B60C1DB3B68002BB9D18D
:2049A000DFE70120BDE8F0810A4A0B4952F8232009780020FFF7E0FD0028E0D17C23338026
:2049C00001209FE71346CAE7601200205C120020B01300204C020020EC130020A4130020BF
:2049E00070B50488672C06461BD0792C33D05CB300230380032070BD1E4C1F4923681F4AC9
:204A00000978581C002520602846D554FFF7B4FD1B4B2A4618688521FFF7AEFD30B300231B
:204A20002360184C134D06E00A28E5D00D28E3D02B687E2B15DD2046FFF772FE431CF3D15D
:204A400067233380012070BDFFF7F6FC0A4A094B10701C60E5E7852901D0012070BD054C55
:204A6000DDE706495A1CC8542A60E4E779233380012070BDE4120020ED13002064120020D3
:204A8000D00C0020E812002008B5054905488022FFF73EFEBDE8084003480021FFF7D4BCF5
:204AA000F0120020E812002088020020074B82B001AA9A42019304D9CD2103F8011B9342BA
:204AC000FBD10348002102B0FFF7BEBCF81300209802002038B5124C124D00F0A1FF2378C2
:204AE000CD2B08D0AC4202D30EE0AC4212D014F8013FCD2BF9D1AC4202D30BE0AC4209D0E2
:204B000014F8013FCD2BF9D000F08AFFAC4203D2281B38BD00F084FF4FF0FF3038BD00BF7F
:204B2000F81300200000042070B5038804463BB1922B0ED11F48FCF75BFB70B9012070BD7D
:204B40001C484FF4A061FCF73FFB92232380012070BD00230380032070BDFFF7BBFF164ED0
:204B6000164B051EA6EB030615DB002E13DBB5420DDD134B1B68002B09DD124A1249134826
:204B8000FFF7B4FB124832462946FFF7AFFB0948FCF724FBD9E70A4B1B68002BF7DD094A42
:204BA00009490A48FFF7A2FB324629460948FFF79DFBECE77013002000000420F813002033
:204BC000A801002084800000507F000098770000B88000008C800000102A2DE9F04114460B
:204BE00006460D460DD90C4F01E0102C0CD93368286810223946103C98470028F5D0BDE83A
:204C0000F0811046002AFAD03368286802492246BDE8F041184700BF208100000B78002BB8
:204C200000F0DF842DE9F04F91B0904600228A468146009204E01AF8013F002B00F0D680C3
:204C4000252BF8D1514500F00381AAEB0104D9E9003022469847002840F05881009A9AF801
:204C6000003022440092002B00F0C3809AF801300AF10104002B00F0BC800021A3F12002BD
:204C8000102A0AD8DFE802F0AF0909AC09090909090909A909A60909A100A3F13102082A8F
:204CA00040F2BD802A2B00F0C88000262E2B00F0AB804FF0FF3B6C2B00F09F80682B00F0BC
:204CC000CA807A2B03D1637841F060010134782B00F2EA80DFE813F08D00E800E800E80061
:204CE000E800E800E800E800E800E800E800E800E800E800E800E800E800E800E800E80034
:204D0000E800E800E800E800E800E800E800E800E800E800E800E800E800E800E800E80013
:204D2000E800C401E800E800E800E800E800E800E800E800E800E800E800E800E800E80016
:204D4000E800E800E800E800E800E800E800E800E800E800E800E800E800BD01E800E800FD
:204D6000E800B601AF01A801E800E800E800E800E800E800E800E800E800E800E800E8005B
:204D8000E800E800E800E800A101E800E800E800E800E800E800E800E8009A01E80093017A
:204DA0001F015B0169016201E8001F01E800E800E800E80085017E017701E800E800700144
:204DC000E8005401E800E8004D0141F0100114F8013F53E741F00101F9E741F00601F6E788
:204DE00041F00801F3E741F00201F0E78A457FF42CAF009811B0BDE8F08F63786C2B31D087
:204E0000013441F0600162E76378A3F13000092804F101022BD92A2B3AD0144649E70026A7
:204E200006EB860603EB460614F8013FA3F13002092AA6F13006F3D938E7D8F800606378B3
:204E4000002E08F10408B8BF41F0010101342DE79AF8003007E76378682B20D0013441F0B8
:204E6000400134E7A37841F0800102342FE74FF0000B0BEB8B0B03EB4B0B12F8013F2F2BFF
:204E8000ABF1300B40F29282392BF2D9144612E7A378D8F800B0023408F104080BE7A37890
:204EA00041F02001023412E701F4E0630F46B3F5A06F04F1010A39D000F29181B3F5407FB9
:204EC00000F09C81B3F5806F40F0D180D8F80050019508F10408002D40F02082C44B019350
:204EE0000625BBF1000F02DB5D4528BF5D46AE428CBF761B0026F80740F12382D9E900300A
:204F000001992A469847002800F0B9814FF0FF3011B0BDE8F08F01F4E06343F48073B3F5F9
:204F2000A06F41F4245704F1010AC5D1012ED8F800308DF82830354638BF0125FA0705F181
:204F4000FF3508F1040840F11C82D9E9003001220AA998470028D9D12A4609F104014846D3
:204F6000FFF73AFE009B01330028CFD1EB1800933FE001F4E06343F4807341F4C85796E784
:204F800001F4E06343F4807341F410678FE701F4E06343F4007341F4024788E701F4E06386
:204FA00043F4007341F4813781E701F4E06343F4007341F400777AE701F4E06343F48063B1
:204FC00041F4806773E701F4E06343F4407341F440776CE701F4E06343F4807341F4885784
:204FE00065E704F1010AD8F80030009A1A6008F104086378002B3FF4FCAE514620E601F4D7
:20500000E06343F4A06341F4A06750E701F4E06343F4007341F4C13749E701F4E06343F4F2
:20502000807341F4B24742E701F4E06343F4007341F4A1373BE701F4E06343F4007341F4FE
:20504000844734E701F4E06343F4007341F442472DE701F4E06343F4007341F4E13726E77A
:2050600001F4E06343F4C06341F4C0671FE7B3F5807FBED1BBF1000FABBF27F0100701238F
:20508000CDF804B0019317F40053069307F0E00300F01D81402B00F07C8200F20B81002BA2
:2050A00000F05A82202B40F09E8298F9002008F10408D317002A73F10001C0F21D82CDE953
:2050C000022307F4C053B3F5805F00F08C81B3F5C05F00F0E781B3F5006F00F0AD810023A2
:2050E00005939B460DF13E030493019B9B4534BFA3EB0B03002341F60802019307EA02016A
:2051000041F208039942019B00F0138191425B4404D1DDE902120A4340F05881002507951E
:20512000069A7AB1059A002A40F04C8107F00602022A00F054812F49062A079A04BF0A4692
:20514000012507922B449E428CBFF31A0023029317F00103059307D1FE0640F1F381DDE947
:2051600001210A44CDE901233DB1D9E9003007992A46984700287FF4C9AE009B019F5B442A
:20518000102F009340F2B2811B4ED9E9003010223146103F984700287FF4B8AE102FF4D89A
:2051A000D9F800301449D9F804003A46984700287FF4ACAED9E9003004995A469847009BBF
:2051C0001D4400287FF4A2AE019B2B449B46059B002B40F0ED80029B5B44009309E7B3F5C8
:2051E000C06F5BD0B3F5E06F3FF4FDAE01E700BF148100004C7A000030810000D8F80010ED
:20520000C948CA4D17F4804F08F104080A464FF0000314BF8346AB4600296AD00DF13B0EBE
:205220007146100902F00F0C40EA03701D0902462B461BF80C0001F8010D52EA0300F0D1EF
:20524000BEEB010557D003357823AE4201F8013C4FF030024FF0230301F8022C01F8033C4A
:20526000A1F1030B8CBF761B0026F9077ED5D9E9003059462A46984700287FF447AE324651
:2052800009F104014846FFF7A7FC009B2B441D4600287FF43BAE73190093AAE6D9E9003056
:2052A000A3490122984700287FF430AE009B013300939EE6602B00F04F81802B40F0938167
:2052C00008F1070828F00708F8E80223F2E6402B00F0578115D8002B00F04481202B40F047
:2052E000998198F800200023CDE9022308F10408E7E60DF13B01302301F8013C04250139EE
:20530000A2E7602B00F02E81802B40F0838108F1070828F00708F8E80223D0E62B78002B43
:2053200000F0488115F8013F002BFBD1019BED1AD7E5012B38BF01230025019307955B44D6
:20534000EEE6324609F104014846FFF745FC00287FF4DCAD0199D9E900302A469847002816
:205360007FF4D4AD009B2B441D4694E7324609F104014846FFF730FC00287FF4C7AD59467C
:20538000E9E72A4609F104014846FFF725FC00287FF4BCADD9E9003001220AA99847009BE3
:2053A000013300287FF4B2AD2B44DFE514468EE4029A09F104014846FFF70EFC00283FF43C
:2053C0000AAFA3E55B4A07920125BBE65A495B4A17F4804F18BF0A4607920225A0E6584A56
:2053E00007920125AEE6DDE9022313433FF477AEDDE902231846002315460593DDE9022377
:205400000DF13E0107918C464FEAD20B4BEA437B02F007014FEAD30E30315A4673460CF80A
:20542000011D52EA0301EFD1079BCDF810C0CDE90250A3EB0C0B58E6DDE90223134300F0FB
:20544000C88000230593DDE902120DF13E03CDE9086407938B46154604971C46584629463E
:205460000A22002301F046FE303204F8012D584629460A22002301F03DFE2F465E46002F4C
:2054800008BF0A2E83460D46E8D2079B049F089E04942246A3EB020B099C26E600220023BB
:2054A000CDE9022317F4804365D10593DDE902231E4DDDE90201014300F085800DF13E00E1
:2054C0000790110902F00F0E41EA03714FEA131C0A46634615F80E1000F8011D52EA03018B
:2054E000EFD1079B0490A3EB000BFEE5019B002B3FF460AE1F4653E6524207F4C05163EBA6
:205500004303B1F5805FCDE9022355D0B1F5C05F45D00123B1F5006F059394D00DF13E0372
:2055200004934FF0000BE0E5F4800000E08000001C81000010810000088100000C810000AD
:2055400008790000029A09F104014846FFF744FB00283FF409AED9E4D8F8002008F10408A8
:20556000D317A7E5D8F8003000221946CDE9021208F10408A5E50021DDE90223324D0591BA
:2055800097E7B8F800200023CDE9022308F1040897E5B8F9002008F10408D3178AE57B0490
:2055A00005D50121DDE90223274D059186E7012305937BE7019DB9E6DDE9022318460123C5
:2055C000154605931AE70DF13E034FF0000B04938BE54FF0000B0DF13E03CDF814B004939E
:2055E00083E51846704707F4C053B3F5805F06D0B3F5C05F3FF452AFB3F5006F13D00023AB
:2056000005939B4600230022CDE902230DF13E0304936AE507F4C053B3F5805F08D0069BBE
:2056200005939B46EEE74FF0000BCDF814B0E9E70699059100230022CDE902230DF13E03E5
:205640008B46049351E500BFF4800000074A084913681844884202D8106018467047054B87
:205660000C221A604FF0FF3318467047A802002000000420E413002010B44FF080414FF0F4
:2056800080520020C1F80C015E4BC1F81001C1F83805D2F80414C3F82015D2F80814C3F876
:2056A0002415D2F80C14C3F82815D2F81014C3F82C15D2F81414C3F83015D2F81814C3F842
:2056C0003415D2F81C14C3F84015D2F82014C3F84415D2F82414C3F84815D2F82814C3F88A
:2056E0004C15D2F82C14C3F85015D2F83014C3F85415D2F83414C3F86015D2F83814C3F8DA
:205700006415D2F83C04C3F86805D2F840043E49C3F86C050968D2F84424C3F870250829F9
:2057200024D04FF08043D3F80024D20744BF6FF00102C3F80024354AD2F8883043F47003BC
:20574000C2F88830BFF34F8FBFF36F8F4FF01023D3F80022002A23DBD3F80432002B1FDBEA
:205760002B4B2C4A1A605DF8044B70472A4B1B68002BD6D129482A4A2A4C04602A492B4BF6
:20578000FB20C2F818050A681B68294822F00F0203F00F0313434FF400720B600260C0E70A
:2057A000244A0123C2F80435D2F80034002BFBD04FF0102312211F4AC3F80012D2F8003497
:2057C000002BFBD04FF0102312211A4AC3F80412D2F80034002BFBD000231649C2F8043590
:2057E000D1F80034002BFBD0BFF34F8F0749124BCA6802F4E0621343CB60BFF34F8F00BF3F
:20580000FDE700BF00C000403001001000ED00E0AC0200200090D003340100108C5600403F
:2058200000F0004048810300E40E0040580200104096024000E001400400FA05802802D119
:20584000024B00221A600120704700BF04C500400120704730B5134C0123236083B0FEF7D4
:20586000ADFF6FF003031D1A03E0FEF7A7FFC54203D5D4F80031002BF7D00A4B0022C3F862
:205880000021D3F80825D3F80835920544BF6FEA83536FEA9353034A01930123536001988E
:2058A00003B030BD00C0004010B541600446FAF779FF206010BD00BF10B50446FAF772FFB2
:2058C000D4E90021C2F101031844884284BF5218226010BD10B50446FAF764FFD4E90032BF
:2058E000C3F10103184482422CBF0020012010BD074B084AC3F81C0582B01368002BFCD0B3
:205900000023136013680193019B02B0704700BF002000401C21004030B4144B1448154D40
:205920004FF0A04100220324C3F80025C1F818474024C1F80845C1F8202708240621C3F88E
:20594000245582B0C3F86C25C3F81445C3F80C15026001680191019C074A04200121C3F814
:205960000005116002B030BC704700BF002000401C21004000E0D70108200040074B0849FD
:20598000084A0020186082B01B680193019BD1F818051368C0B202B0184700BF082100402C
:2059A00000200040801300204FF0A0434FF4F0310022C3F80815C3F80C25704700B5104BA1
:2059C00093E8070085B001AB83E807000D491846FEF708FA48B90C48FEF73EFA60B90B4B56
:2059E00001221A7005B05DF804FBFAF713FD0648FEF732FA0028F2D0FAF70CFDEFE700BF08
:205A00005C810000A9590000A5130020A6130020024B1B7803B97047FEF710BAA61300200B
:205A2000034B1B7803B97047024B1878FEF73ABAA6130020A513002008B5074B044613B17E
:205A40000021AFF30080054B1868836A03B19847204600F02FFF00BF000000006881000087
:205A600070B50D4D0D4C641BA4100026A64209D10B4D0C4C01F04CFE641BA4100026A64207
:205A800005D170BD55F8043B98470136EEE755F8043B98470136F2E718030020180300209B
:205AA000180300201C03002038B5104B1D68AB6B0446B3B9182000F095F80246A86320B9F2
:205AC0000B4B0C48422100F05DF80B490B4BC0E900130B4B83600B23838100210120C2E9B6
:205AE0000401AB6B00221C615A6138BDB0020020CC810000E38100000E33CDAB34126DE667
:205B0000ECDE0500174B10B51C68A36BB3B9182000F068F8A06328B90246134B13484E21B5
:205B200000F030F8124A134BC0E90023124B83600B23838101220023C0E90423A16B0F48DC
:205B40000A694B690E4C504304FB0300A2FB04345A1C044444F10000C1E9042020F0004049
:205B600010BD00BFB0020020CC810000E38100000E33CDAB34126DE6ECDE05002DF451582B
:205B80002D7F954C1FB514461A46094B1B680546D8684CB1074B0091CDE9013406492B46FD
:205BA00000F00EF801F0E4FC044B1C46F3E700BFB00200205F8200006C8200009A82000017
:205BC0000EB403B5014603AB054853F8042B0068019300F0B9F802B05DF804EB03B0704792
:205BE000B0020020024B0146186800F053B800BFB002002037B5002948D051F8043C0190EC
:205C0000002BA1F10404B8BFE41800F085FD204A01981368154633B96360146003B0BDE886
:205C2000304000F07FBDA3420BD921686218934204BF1A685B68636004BF521822602C6021
:205C4000ECE71A465B680BB1A342FAD911685518A5420BD1246821445418A3421160DDD1D0
:205C60001C685B68536021441160D7E702D90C230360D3E7256861198B4204BF19685B6894
:205C8000636004BF491921605460C7E703B030BD84130020F8B5CD1C25F0030508350C2DB9
:205CA00038BF0C25002D064601DBA94203D90C2333600020F8BD00F02FFD21490A681446B7
:205CC0009CB9204F3B6823B92146304600F092FA38602946304600F08DFA431C23D10C23B2
:205CE0003360304600F01EFDE3E723685B1B17D40B2B03D923601C44256004E06368A242CD
:205D00000CBF0B605360304600F00CFD04F10B00231D20F00700C21ACCD01B1AA350C9E784
:205D200022466468CCE7C41C24F00304A042E3D0211A304600F05EFA0130DDD1CFE700BF9F
:205D400084130020881300202DE9F04F0D469DB014469846064618B183690BB900F01EFCD5
:205D6000894B9D421BD175686B6ED90705D4AB899A0502D4A86D01F038FCAB891B0701D506
:205D80002B69EBB92946304600F096FAC0B16B6EDC070ED54FF0FF301DB0BDE8F08F7B4B31
:205DA0009D4201D1B568DFE7794B9D4208BFF568DAE7AB899805EDD4A86D01F017FCE9E74C
:205DC0000023099320238DF82930CDF80C803023DFF8C0818DF82A304FF0010923469A46B6
:205DE00013F8012B0AB1252AF9D1BAEB040B0BD05B4622462946304601F03BFB013000F0D3
:205E0000AA80099A5A4409929AF80030002B00F0A28000234FF0FF32CDE905230AF1010A06
:205E2000049307938DF853301A935446052214F8011B5848FAF7E4F9049AD8B9D10644BF1C
:205E400020238DF85330130744BF2B238DF853309AF800302A2B15D0079A544600204FF0EE
:205E60000A0C214611F8013B303B092B4ED9B0B1079214E0A0EB080309FA03F31343049330
:205E8000A246D2E7039B191D1B680391002BBBBF5B4242F0020207930793B8BF0492237822
:205EA0002E2B0CD163782A2B35D1039B1A1D1B680392002BB8BF4FF0FF3302340593DFF8D1
:205EC000E4A0217803225046FAF79AF940B14023A0EB0A0003FA00F0049B034301340493DF
:205EE00014F8011B2C488DF828100622FAF788F900283FD0294B1BBB039B073323F0070339
:205F000008330393099B3B44099367E70CFB02320C460120A5E700230134059319464FF0DB
:205F20000A0C204610F8012B303A092A03D9002BC5D00591C3E70CFB012104460123F0E7CA
:205F400003AB00932A46164B04A93046AFF300800746781CD6D16B6ED90705D4AB899A05FD
:205F600002D4A86D01F042FBAB895B063FF512AF099811E703AB00932A46094B04A93046BD
:205F800000F012F8E4E700BF8C810000AC8100006C8100009B820000A58200000000000012
:205FA00073740000A18200002DE9FF470C469146277E0C99782F80469A4604F1430207D8A2
:205FC000622F0AD8002F00F0D880582F00F0A38004F1420684F842703AE0A7F16303152B7A
:205FE000F6D801A050F823F04160000055600000D15F0000D15F0000D15F0000D15F0000C1
:2060000055600000D15F0000D15F0000D15F0000D15F0000616100008560000043610000C0
:20602000D15F0000D15F000083610000D15F000085600000D15F0000D15F00004B610000FB
:206040000B681A1D1B680A6004F1420684F842300123A3E0256808682E0600F104030AD5CF
:2060600005680B60002D03DA2D236D4284F843305E480A2319E015F0400F05680B6018BF81
:206080002DB2EFE70B682568181D0860280601D51D6802E06906FBD51D8854486F2F0CBF5A
:2060A00008230A23002184F843106668A660002EA2BF216821F0040121600DB9002E4DD004
:2060C0001646B5FBF3F103FB1157C75D06F8017D2F46BB420D46F4D9082B0BD12368DF07B8
:2060E00008D5236961689942DEBF302306F8013C06F1FF36921B2261CDF800A04B4603AA69
:206100002146404601F0C7F901304CD14FF0FF3004B0BDE8F087354884F8457023680E68A6
:206120001F0656F8045B0E6014D5D90744BF43F0200323601DB9236823F02003236010232D
:20614000B0E7236843F0200323607823284884F84530E3E75E0648BFADB2E6E71646BBE7E9
:206160000B68266860691D1D0D6035061B6801D5186002E07106FBD51880002323611646DE
:20618000BAE70B681A1D0A601E68626800213046FAF736F808B1801B6060636823610023BE
:2061A00084F84330A8E72369324649464046D0470130ABD023689B0713D4E068039B9842B1
:2061C000B8BF1846A4E70123324649464046D04701309BD00135E36803995B1AAB42F2DCAE
:2061E000EBE7002504F11906F5E700BFAC820000BD82000038B5064D0023044608462B6006
:20620000FFF724FA431C02D12B6803B1236038BDE4130020F8B50E461446054618B1836907
:206220000BB900F0BBF9214B9C422BD16C68A369A360A3891A072FD523696BB323692068BE
:20624000C01A6369F6B28342374604DC2146284600F026F930BBA368013BA36023685A1CB4
:2062600022601E7063690130834204D0A389DB0706D50A2E04D12146284600F011F988B972
:206280003846F8BD0A4B9C4201D1AC68CFE7094B9C4208BFEC68CAE72146284600F00CF835
:2062A0000028CBD04FF0FF37EAE700BF8C810000AC8100006C810000324B70B51D6806467C
:2062C0000C4625B1AB6913B9284600F067F92E4B9C420FD16C68A389B4F90C2019072CD4C8
:2062E000DD0611D40923336042F04003A3814FF0FF303EE0254B9C4201D1AC68EBE7244B7D
:206300009C4208BFEC68E6E7580712D5616B41B104F14403994202D03046FFF76BFC0023D4
:206320006363A38923F02403A3810023636023692360A38943F00803A38123694BB9A389CE
:2063400003F42073B3F5007F03D02146304600F0A3F9A089B4F90C2010F001030AD000234D
:20636000A36063695B42A361236943B910F08000BAD170BD810758BF6369A360F4E7002084
:20638000F7E700BFB00200208C810000AC8100006C8100008A892DE9F041054610070C4659
:2063A00058D44B68002B05DC0B6C002B02DC0020BDE8F081E66A002EF9D0002312F48052FA
:2063C0002F682B6032D0606DA3895A0705D56368C01A636B0BB1236CC01A00230246E66A12
:2063E000216A2846B047431CA38906D129681D292CD82A4ACA40D60728D500226260D90457
:206400002269226004D5421C01D12B6803B96065616B2F600029CAD004F14403994202D04B
:206420002846FFF7E7FB00206063C1E7216A01232846B047411CC7D12B68002BC4D01D2BE8
:2064400001D0162B01D12F60B1E7A38943F04003A381ADE70F69002FA9D093070E6808BFE0
:206460004B690F6018BF0023A6EB07088B60B8F1000F9CDD216AA66A43463A462846B0473A
:20648000002806DCA38943F04003A3814FF0FF308EE70744A8EB0008E9E700BF0100402073
:2064A00038B50B6905460C4613B90025284638BD18B183690BB900F071F8144B9C421BD18F
:2064C0006C68B4F90C30002BEFD0626ED00704D4990502D4A06D01F088F828462146FFF7D9
:2064E00059FF636EDA070546E0D4A3899B05DDD4A06D01F07BF8D9E7054B9C4201D1AC68D1
:20650000DFE7044B9C4208BFEC68DAE78C810000AC8100006C810000002310B50446C0E9AA
:206520000033C0E90433836081814366C2818361194608225C3000F075FF054B6362054BB5
:20654000A362054BE362054B2462236310BD00BF8B760000AD760000E576000009770000BA
:20656000014901F022B800BFA1640000014801F03CB800BFF6130020014801F037B800BF44
:20658000F6130020014801F030B800BFF1130020014801F02BB800BFF113002010B50446BE
:2065A000FFF7F0FFA3691BB1BDE81040FFF7F0BFC4E912332365134B134A1B68A262A342E3
:2065C00004BF0123A361204600F020F86060204600F01CF8A060204600F018F80022E06070
:2065E00004216068FFF798FFA06801220921FFF793FFE06802221221FFF78EFF0123A361FA
:20660000D2E700BF6881000061650000F8B50746FFF7ACFF1E4B1E68B36913B93046FFF775
:20662000BDFF4836D6E90134013B03D533680BB33668F7E7B4F90C50D5B9164BE36004F113
:206640005800656600F0D0FFFFF796FFC4E90155C4E904552560A5610822294604F15C004F
:2066600000F0E0FEC4E90D55C4E912552046F8BD6834D9E70421384600F081FF04463060C5
:206680000028D5D1FFF778FF0C233B60EEE700BF688100000100FFFF8B8973B59D0706464D
:2066A0000C4607D504F14703236023610123636102B070BD01AB6A4600F099FF00990546D7
:2066C0003046FFF7E7FA48B9B4F90C309A05EFD423F0030343F00203A381E3E70D4BB36275
:2066E000A389206043F08003A381009B6361019B20615BB1B4F90E10304600F067F828B123
:20670000A38923F0030343F00103A381A0890543A581CDE761650000014800F066BF00BFAB
:20672000F2130020014800F061BF00BFF2130020024B0146186800F07EBF00BFB002002025
:2067400038B5074D00230446084611462B6000F091F8431C02D12B6803B1236038BD00BF32
:20676000E413002038B5074D04460846114600222A601A4600F096F8431C02D12B6803B1CF
:20678000236038BDE413002038B5064D0023044608462B6000F04EF8431C02D12B6803B135
:2067A000236038BDE413002038B5074D00230446084611462B6000F045F8431C02D12B687A
:2067C00003B1236038BD00BFE413002038B5064D0023044608462B6000F044F8431C02D1D3
:2067E0002B6803B1236038BDE413002038B5074D04460846114600222A601A4600F042F85D
:20680000431C02D12B6803B1236038BDE413002038B5074D04460846114600222A601A4634
:2068200000F038F8431C02D12B6803B1236038BDE4130020024B58221A604FF0FF307047CA
:20684000E4130020024B58221A604FF0FF307047E4130020024B58221A604FF0FF3070473E
:20686000E4130020024B58221A600020704700BFE4130020024B58221A604FF0FF307047AD
:20688000E4130020024B58221A604FF0FF307047E4130020024B58221A604FF0FF307047FE
:2068A000E4130020024B58221A604FF0FF307047E4130020FEE700BF81F0004102E000BF4D
:2068C00083F0004330B54FEA41044FEA430594EA050F08BF90EA020F1FBF54EA000C55EAD3
:2068E000020C7FEA645C7FEA655C00F0E2804FEA5454D4EB5555B8BF6D420CDD2C4480EAB2
:20690000020281EA030382EA000083EA010180EA020281EA0303362D88BF30BD11F0004F61
