:020000040000FA
:200000000000042079180000A1180000A3180000A5180000A7180000A9180000000000007A
:20002000000000000000000000000000AB180000AD18000000000000AF180000B1180000A8
:20004000AD2E000091260000DD5A0000B3180000B3180000B3180000CD2B0000B3180000B3
:20006000853A0000B3180000B3180000BD2F0000B3180000BD2E0000B3180000B3180000F3
:200080006D300000B3180000B3180000B3180000B3180000B3180000B3180000B318000036
:2000A000B3180000B3180000B3180000B3180000B3180000B318000000000000000000007E
:2000C000B3180000B3180000B3180000B3180000B3180000B3180000B3180000B3180000C8
:2000E000B3180000B3180000B31800000000000000000000B318000000000000B318000009
:200100000000000000000000000000000000000000000000000000000000000000000000DF
:200120000000000000000000000000000000000000000000000000000000000000000000BF
:2001400000000000000000000000000000000000000000000000000000000000000000009F
:2001600000000000000000000000000000000000000000000000000000000000000000007F
:2001800000000000000000000000000000000000000000000000000000000000000000005F
:2001A00000000000000000000000000000000000000000000000000000000000000000003F
:2001C00000000000000000000000000000000000000000000000000000000000000000001F
:2001E0000000000000000000000000000000000000000000000000000000000000000000FF
:2002000001F0FF01102A2BDB10F0070F08D010F8013B013A8B422DD010F0070F42B3F6D1A4
:20022000F0B441EA012141EA014122F007047FF000070023F0E80256083C85EA010586EA51
:20024000010685FA47F5A3FA87F586FA47F6A5FA87F68EB9EED1F0BC01F0FF0102F007024C
:2002600032B110F8013B013A83EA010313B1F8D10020704701387047002D06BF35460338AF
:20028000073815F0010F07D1013015F4807F02BF013015F4C03F0130F0BC0138704700BF73
:2002A00007EE900AFAEECA7A08B517EE900A06F017FD0FA3D3E9002306F06AFD06F07AFFC0
:2002C00006F00EFD0CA3D3E9002306F061FD0CA3D3E9002306F0A6FB06F06CFF07EE900A26
:2002E000FDEEE77A17EE900A08BD00BFAFF30080CDCCCCCCCCCC0C409A9999999911794090
:200300008D976E128370454007EE900AFAEECA7A08B517EE900A06F0E3FC0BA3D3E9002348
:2003200006F07EFB02460B4609A1D1E9000106F059FE06F03FFF07EE900AFDEEE77A17EEEF
:20034000900A08BDAFF300807B14AE47E17A943F333333333333134010B5054C237833B948
:20036000044B13B10448AFF300800123237010BD2C030020000000009484000008B5034B06
:200380001BB103490348AFF3008008BD000000003003002094840000A3F5803A704700BFE0
:2003A000174B002B08BF134B9D46FFF7F5FF00218B460F461348144A121A07F0E3F80E4B67
:2003C000002B00D098470D4B002B00D098470020002104000D000D48002802D00C48AFF37A
:2003E000008005F0EDFB2000290000F0F7F905F0D3FB00BF000008000000000000000000ED
:20040000000004202C03002028130020000000000000000000B585B00346002101AA44F2D9
:200420000100CDE90111039300F004F805B05DF804FB00BF72B6094B1B68DB0700D500BE35
:20044000BFF34F8F0649074BCA6802F4E0621343CB60BFF34F8F00BFFDE700BFF0ED00E0D1
:2004600000ED00E00400FA0572B6024A136801331360704748030020034A1368013B13607D
:2004800003B962B6704700BF4803002010B50446006830B1002103F02FF954F8040F00288C
:2004A000F8D110BD10B590F84C10094A013180F84C10044603468021203000F06BFD054B78
:2004C00022461978BDE81040002003F0ADB900BFA5040000191300202DE9F04103880446E5
:2004E0003BB1B3F5867F0AD182290DD00120BDE8F0814FF4867323800120BDE8F081002390
:2005000003800320BDE8F08101F06AFABFF35F8F1649174B0E6800220A601F781A70FFB295
:20052000BFF35F8F134D01F05FFA28680028E0D0DFF8448003E055F8040F0028D9D090F8D2
:20054000463026FA03F3DA07F5D590F8453047FA03F3DB07EFD500F043FD0028EBD02B68E4
:2005600042461846022100F015FDE4E75C030020C212002040010020D905000010B4094ADC
:20058000094C13681943116021780346012202FA03F30B43DBB2237004485DF8044B03F076
:2005A00065B900BF5C030020C21200205401002010B5044690F8461090F8450001F0CEF904
:2005C00010B994F8440010BD01280ABF94F84400002080F0010010BD70B5044600F000FD39
:2005E00000B970BD04F12006304600F0F9FC05462046FFF7DDFF01280ED00028F1D1002DFE
:20060000EFD1304600F0D2FC0D4B224628461978BDE8704003F008B9002DE2D000253046A4
:200620002346084A84F84C507E2100F0B3FC064B284622461978BDE8704003F0F5B800BF3D
:2006400018130020A50400001A130020F8B503F04BF8304B304C187003F046F82F4B304FCD
:20066000187003F041F82F4922682F4B08700025FF2139727B60FD60002A42D02B4E09E00C
:2006800091F84600F9683A72834054F8042F0B43FB60B2B392F8463092F84510926C03F05E
:2006A0001F0343EA41131F2BC6BF03F01F0331464FF0A04103F5E07342F08C0241F8235065
:2006C000236893F8461093F8450001F005F9226892F8463092F8450003F01F0343EA401004
:2006E000012102F0CDF92168387A91F8452082424FF00103C4D0FF28C2D054F8042F002AFA
:20070000C8D10B48002102F0F7FFBDE8F840044801F038B91A1300204001002018130020E0
:200720004C030020191300207D050000000300505401002030B5174B83B000221A6001F0AD
:20074000FFFF00BB002002F017F8134B134A93E80300FF250090ADF8041006240023104874
:20076000ADF8005069468DF802408DF8043002F0BBFB58B901210A4802F00AFC084802F0EE
:20078000FBFB03B030BDFFF745FEDBE7FFF742FEF0E700BF60030020D8780000D107000051
:2007A000E0780000014B1868704700BF6003002008B5064A13680133136000F01FFD00B928
:2007C00008BDBDE8084000F0F9BC00BF60030020042800D07047FFF7EBBF00BF10B54F4C0E
:2007E00002F096FEFFF7A6FF03F05CF902F0A6FF4B48002102F080FF00F092FB05F08EF9DB
:2008000000F028FC04F002FA02F08AFE03F04CF801F008FB01F018FB2368022B11DC02F094
:200820009BFE4048FFF732FE05F0A2F902F0A0FF044605F0A5F914F0FF0FF7D102F092FE17
:20084000F4E7394A39493A4802F0A8FE394803F01DF82368022BE2DD334A3449344802F036
:200860009DFE354B3548196802F098FE2368022BD5DD2D4A2D492E4802F090FE304B314896
:20088000196802F08BFE2368022BC8DD264A2749274802F083FE2C4B2C48196802F07EFE63
:2008A0002368022BBBDD204A2049214802F076FE27484AF6CD3102F071FE2368022BAEDDF5
:2008C000194A1A491A4802F069FE22481A2102F065FE2368022BA2DD134A1449144802F05E
:2008E0005DFE1D4B1D48198802F058FE2368022B95DD0D4A0D490E4802F050FE184802F028
:200900004DFE2368022B8ADD164801F08FF92368022B84DD0A2002F0B7FF80E7A80100207B
:200920009801002034820000E8780000F0780000F878000008790000E07A00002879000094
:20094000C47A000038790000BC79000044790000507900006C790000BC1200208C79000015
:200960009C790000D812002070B590F82D50012D04460FD91F2502F0FBFF0246B0FBF5F1C5
:20098000234601FB152104F10C00054ABDE8704000F000BBE91C01258D40013DEBE700BFA5
:2009A000310A00002DE9F04714460D468A6894F82C900646606BD2E9007801F00FF96868B5
:2009C00002F0A8FFA968164801F0FCF91548294601F0F8F9606B01F0D1F860B10023A3859A
:2009E0002046FFF7C1FF4B46324641463846BDE8F04701F0ADB904F10C0000F0D7FA214671
:200A0000094801F0EBF82146084801F0DBF94B46324641463846BDE8F04701F099B900BF49
:200A2000640100207C010020CC0300207001002008B32DE9F047044682B0406B01F09EF85E
:200A40000546A8B1406802F07BFF63490C2002F043FD0121072002F031FD00F063F90028F7
:200A60000ADAAB6823B1052022462946FFF79AFF02B0BDE8F087704702F07AFCDFF85C817F
:200A800090F80290D8F8047002F072FC064602F079FC01463046B84702F032FDD8F81860C0
:200AA0000746B04770BB002F4AD1D8F81CA0D04740BBD8F8087002F065FCB84700285DD0F0
:200AC00002281FD0AB68002BD2D00420CCE702F0CDFF6FF028031E1A03E002F0C7FFC64223
:200AE00002D5D0470028F8D0D04700285ED0D8F81030032101A89847032803D19DF8063025
:200B00004B4524D0AA68002AB2D094F82D300133DBB2052B84F82D3094F82C3008D8127A8C
:200B20009A4224D8224629460120FFF73BFF9FE70133DBB2002184F82C3084F82D10EEE7E7
:200B4000D8F8086002F01EFCB0470028B8D1AB68002B8DD094F82C3000200133294684F8E7
:200B60002C3084F82D002246FFF71CFF80E72046FFF7FAFE686802F0C7FE79E702F076FFEE
:200B80006FF018073F1A03E002F070FFC74202D5D0470028F8D0B047002898D1D04700288C
:200BA00095D1D8F814309847002890D0A96800293FF45EAF94F82C300133DBB2002284F893
:200BC0002C3084F82D200A7A9A42D0D8224629460220FFF7E7FE4BE7D8120020847A0000DA
:200BE0002DE9F04106460D200F4602F081FC054601F04CF801210B2002F060FC3C4800F0E2
:200C0000BDFFD0B1044603E001F00CF80446A0B12946201D00F0A6FF03462046002BF3D0FC
:200C2000606B00F0F5FF07281EDD394630460123BDE8F041062201F08BB82E4801F0A6F88B
:200C400004460028F1D02946201D00F085FF002304F13000C4E90C30A38500F08BFF244802
:200C6000214600F08DFFDBE7234801F08FF8054650B3224801F08AF8A86008B302F022FEEC
:200C80006860C8B10520D5F8088002F01FFCC8E9006710F0FF000ABF082388F8080088F879
:200CA0000830606B294600F06BFF606B00F066FF854217D0BDE8F081A968104801F082F8B0
:200CC0000D48294601F07EF8606B00F0A1FF0028ABD12146064800F081FF2146054801F020
:200CE00071F8A2E72046BDE8F041FFF73DBE00BFCC030020700100207C0100206401002074
:200D000008B5054801F030F8044801F02DF8BDE80840034801F028B87C0100206401002023
:200D20007001002010B501210B2002F0C7FB024BBDE810405B681847F4790000014B9B683C
:200D4000184700BFF4790000014B1B6A184700BF847A0000014B5B6A184700BF847A0000EE
:200D600010B50D4B82B01B6898470C4B04469B6A01A91920984701280BD0002C0198B8BF1A
:200D800015248028D4BFC4EB0000C4F1800002B010BD002002B010BDF4790000847A000072
:200DA000FFF71EBF00B583B002F0E6FA032802D103B05DF804FBFFF7C1FF0028F8DB0D20C3
:200DC00002F096FB1F4900F0CDFEE8B10C2002F08FFB1C4900F0C6FE0028E9D100F060FFE2
:200DE000B8B1072002F072FB0028E1D00223ADF8043002F0BDFA144B8278DB688DF806203D
:200E0000032101A89847D3E702F07AFB0028DDD1CEE700F06BFF072002F058FB18B90B4B8D
:200E20009B689847C4E70223ADF8043002F0A0FA054B8278DB688DF80620032101A89847B7
:200E4000EDE700BFD8120020847A0000C47A000030B50D4C83B0A56A69461920A84748B961
:200E600001A90420A84738B100F008FFFFF748FF236A984703B030BD0199E36A21F0020191
:200E8000019104209847EFE7847A0000F0B5038883B0054633B14A2B18D188291BD001203C
:200EA00003B0F0BD1B4800F069FE044630B1A168201D00F089F92468002CF8D1164B012230
:200EC0001A704A2301202B8003B0F0BD00230380032003B0F0BD0F48019200F04FFE044655
:200EE0000028EED0019A031D9A4205D02468231D002CE6D09A42F9D10648084E214600F051
:200F00006DFED4E90523376832600BB1E06998473760D6E7AC040020C31200207C090020AE
:200F200010B5064B064800241C7000F023FE21460448BDE8104002F0DFBB00BFC3120020A4
:200F4000AC0400208801002070B50E4C049E25784661C0E90623044635B9A1600A482146EF
:200F6000BDE8704000F00CBE084D094B2E682B60043000F029F92E6021460348BDE87040BD
:200F800000F0FEBDC3120020AC0400207C0900208801002010B5044C82B024680094FFF736
:200FA000D3FF02B010BD00BF7C09002010B50A4B1B7804463BB9C0E9033321460748BDE857
:200FC000104000F00BBE043000F020F921460348BDE8104000F002BEC3120020AC040020AF
:200FE00038B50C4B1D7804466DB90B4800F0C6FD38B1A04202D10BE0844209D000680028EA
:20100000FAD1012038BDBDE83840043000F0F0B8002038BDC3120020AC04002010B504461D
:20102000C0B204F015FD204610BD00BF70B570B10E46451E002404E0A64206D004F008FD8A
:20104000013415F8010F0028F6D1204670BD0446FBE700BF704700BF10B5FFF7A3FB0B4BAC
:201060001A68D2E9003192680B44191A52B1D2E9003423441B1A9268994228BF1946002AB3
:20108000F5D14318024A136010BD00BFB4040020B00400202DE9F843038805465BB3592B7F
:2010A0002CD187292FD0822920D12C4FDFF8B4803C684FF00009CCB1002603E0A368264679
:2010C000A3B11C46204604F0B5FC0028F6D0E0682246882102F0A8FB03464046002B2AD07F
:2010E00002F0C4FBA3682646002BEAD159232B800120BDE8F883194A1360F7E70023038020
:201100000320BDE8F883154F3968002019B9EDE789680120D9B1CB689342F9D000B139600A
:201120008B68002BE2D0D868904207BF9B688B6019469B68F5E7E360A3686EB1B3603B68B8
:20114000C4F808902BB1FFF787FF3C68B3E73960CCE7034A1360C9E73B60F1E7B40400209E
:20116000B00400209801002010B50446104802F07DFB1049E3680A684BB142B194420FD057
:20118000134601E09C420BD09B68002BFAD10A4BA2601B68E3600C60BDE81040FFF75CBFD4
:2011A000054B1B68E360BDE81040FFF755BF00BF98010020B40400207C090020014802F0EA
:2011C00055BB00BF9801002010B5044604F01CFC2046BDE81040FFF7C7BF00BF10B50446C7
:2011E00004F01AFC2046BDE81040FFF7BDBF00BFC068B0FA80F04009704700BF024B18688B
:20120000003818BF01207047B404002010B5124B19688142044614D00B462BB19A68A24268
:2012200006D01346002BF9D10023C4E9023310BDA2689A6049B1FFF70FFF0023C4E90233B1
:2012400010BD82681A60002AF5D1044B00221A600023C4E9023310BDB4040020B004002004
:20126000014B1888704700BF2003002000283ED0037A022B30B410D00378022B15D003791C
:20128000B3B10024C37913F0030318BF012301B10C6002B1136030BC7047C579447A037927
:2012A00065B90CB9012BF2D0DBB100231C46EEE7447A14F0030418BF0124E3E7C4B1032D43
:2012C00037D1032C2ED0022C24D143BB022D2DD00123032D24D1A4F10204B4FA84F4640915
:2012E000D5E7023C012C8CBF00240124CFE770474BB9022D08BF0123EAD1A4F10304B4FAA3
:2013000084F46409C3E7032D01D0022D02D123461C46BCE7002BC8D1022DDAD1EDE7012337
:201320000024B4E7002BC0D10123D4E701231C46ADE7022DC7D1002BF1D1022C4FF0010314
:20134000DBD11C46A3E700BF30B500230B608B80437D0D46D9075CBF01232B70037E012B3E
:2013600083B0044623D901AA694604F11000FFF77DFF009B0BB10223EB70019B0BB10223CF
:201380006B70E37D03F00303022B03D0032B14BF00230823AB70637E03F00303022B03D0D5
:2013A000032B14BF002308232B7103B030BDC37D9A0706D0437E9B0703D0C28B838B9A427E
:2013C00002D000232375CEE701230375CBE700BF02280CBF012307230B441A78FF2A184613
:2013E00003F1FF3303D18142F7D1012070470020704700BF30B583B06946FFF7A5FF9DF804
:2014000000309DF801509DF802409DF803109DF804209DF8050002332B4423440B44134433
:20142000184403B030BD00BF70B4437882780578C478DB00120102F0100203F00803134319
:20144000027905F0070564012B4304F020049201234302F0400213430B7043798579467AAD
:20146000C479027A03F001036D0043EA861305F00205A0002B4300F00C001201034302F038
:201480003002134370BC4B70704700BFF0B583B00E4607466946FFF757FF314607F1100074
:2014A000FFF7C2FF9DF80030012B04BFBB7EB3709DF801300CBF03220222022B08D1BB8B3F
:2014C000B354531CB98BDBB2090A0232F154D2B29DF802304BB35D1E13443D44DBB21446B6
:2014E0000132D2B215F8011931559A42F7D19DF80320022A08D1FA8BF2545A1CF98BD2B2DE
:20150000090A0233B154DBB29DF8040078B1C41D18443C44C0B21A460133DBB214F8015979
:20152000B5549842F7D103B0F0BD1346DFE7184603B0F0BD30B40278437802F00700C2F3FC
:20154000C005C2F300140870C2F34010C2F380124D708C7003F00105C3F34004C8700A71DA
:20156000C3F38100C3F301129B094D718C71C87130BC0A724B727047012943DD2DE9F04166
:2015800086B00F4603A914460546FFF7D3FF03AB03CB9DF811201B882383206161616AB3BC
:2015A000AE1C03A802AA01A9FFF760FE9DF81380B8F1000F43D0029B002B31D1B8F1020F95
:2015C000A38367D0B8F1030F4DD09DF81580B8F1000F2CD0019BBBB9A38BE383B8F1020F9A
:2015E0004DD0B8F1030F31D0701B3B1A8742C4E90E6300DA002006B0BDE8F081AB78A37649
:20160000EE1CCEE700207047717816F8023B029A03EB01239BB2E383002ADFD1A383DDE7DB
:20162000727816F8023B03EB02239BB2C6E71E4904F1080000F090FAA4F81E80D4E71A4932
:20164000204600F089FAA4F81C80BEE706F10800034604F1080213F8011D02F8011BB34259
:20166000F9D10646C0E706F108000346621E13F8011D02F8011FB342F9D10646A5E70A49B8
:2016800004F1080000F068FA7378237216F8023B6372A9E70449204600F05EFA7378237052
:2016A00016F8023B637090E7007A000030B591B001F04EFE044601F05FFE6A4601462046C3
:2016C000FFF75AFF00283ED0044601F025FED0B39DF810100B2001F0F1FE9DF81310072005
:2016E00001F0ECFE9DF817308BB1BDF81C50FFF7B7FD854205D0BDF81C204FF6FF739A420C
:2017000021D19DF817006946FFF762FEB0B102A90C2001F0E1FE9DF815303BB14FF6FF71A3
:20172000062001F0CBFE204611B030BD9DF81A10062001F0C3FE204611B030BD69460D202E
:2017400001F0CAFEE3E74FF0FF34ECE7F8B505460B2014460E46A84700232074A37496B3EA
:20176000E37463750820A847002701232376A07567740620A847A076FFF772FDE083092033
:20178000A84701280CBF3B4603236376FFF768FDA0830A20A84701281AD066B90323E3759F
:2017A000637E022B0CD0E37DA3F10203B3FA83F35B092375F8BD0223E375637E022BF2D124
:2017C00001232375F8BD0720A8476675E074C9E7E775E5E730B591B00546FFF741FD4FF691
:2017E000FF74A0423AD040220021684605F0CAFE01F086FE6A4601461A48FFF7A7FF01F041
:201800007FFE18B3ADF800400C2001F071FE014602A800F0A1F901F09BFD0E9001F0ACFDD3
:20182000034668460F93FFF7E5FD044615B9204611B030BD01F040FD80B101F099FD0146DE
:201840006846FFF723FE204611B030BD0D2001F04FFE0146684600F07FF9D5E74FF0FF34B9
:20186000E5E700BFCD3400000120FFF7B3BF00BF0020FFF7AFBF00BF0649074A074B9B1AAA
:2018800003DD043BC858D050FBDC03F0A5FFFEF787FD0000A0840000000000202C0300206F
:2018A000FEE7FEE7FEE7FEE7FEE7FEE7FEE7FEE7FEE7FEE700F01F030121C0F3471099401F
:2018C00000F066B808B501F03FF800B108BDBDE8084000F0EFBF00BF30B583B014460223BE
:2018E00001F01F0100228DF8063014F00C0341EA4015ADF8042006D0042B25D0082B27D07A
:201900000C2B02D103238DF8043014F0030304D0022B15D0012B02D103238DF805300E4AB7
:2019200001A9284601F01AF82306284603D401F013F903B030BD012101F0A2F803B030BD34
:2019400001238DF80530EAE701238DF80430DCE702238DF80430D8E7B518000001F01F01BD
:2019600041EA40101F28CABF054B4FF0A04300F01F00D3F8101521FA00F000F001007047F8
:20198000000300500146014800F0FAB8B804002070B505460C480E4600F0F0F890B104466B
:2019A00001E0246874B1237AAB42FAD1E36816EA0301F6D063682846002BF2D0984724689A
:2019C000002CF0D170BD00BFB804002008B5034800F0D0F8BDE80840FFF774BFB8040020A0
:2019E000EFF3108072B6704780F31088704700BF032824D8124B00EB40001A181B5C9178B4
:201A0000527803F01F0343EA421361B11F2BC6BF0C4903F01F034FF0A041012202FA03F3E5
:201A2000C1F80C3570471F2BC6BF064903F01F034FF0A041012202FA03F3C1F808357047E0
:201A4000B878000000030050032824D8124B00EB40001A181B5C9178527803F01F0343EA96
:201A6000421361B11F2BC6BF0C4903F01F034FF0A041012202FA03F3C1F8083570471F2B9A
:201A8000C6BF064903F01F034FF0A041012202FA03F3C1F80C357047B878000000030050F4
:201AA00070B41A4A1A4D0023012440FA03F1C90712D59178B9B11178567801F01F0141EA04
:201AC00046111F29C6BF01F01F012E464FF0A04604FA01F1C6F808150133042B02F1030212
:201AE000E3D170BC70471178567801F01F0141EA46111F29C6BF01F01F012E464FF0A046EE
:201B000004FA01F1C6F80C15E6E700BFB8780000000300500E4A30B40E4D02F10C0403202A
:201B20001378517803F01F0343EA41131F2BC6BF03F01F0329464FF0A04103F5E0730332C8
:201B4000944241F82300EBD130BC0F20FFF7A8BFB8780000000300500B684A684260036072
:201B6000704700BF08B5082205F0F0FCB0FA80F0400908BD00230360704700BF00687047E4
:201B80000368DBB110B4002400E0134699420FD01A681C46002AF8D100230B600368CBB127
:201BA0001A461B68002BFBD111605DF8044B70470A686CB1226000221A60EDE700230B6070
:201BC00003684BB11A461B68002BFBD1116070470260F0E70160E8E70160704703689BB164
:201BE00010B4002400E0134699421A6805D01C46002AF8D15DF8044B704734B12260002259
:201C00001A605DF8044B704770470260F7E700BF03682BB100201B680130002BFBD1704770
:201C20001846704700B10068704700BFF0B170B50024104E054654B1E3070DD5295D3046A0
:201C400001F0ACFC072C10D00134002CF4D12978304601F0A3FCF7E72E2001F015FE295D55
:201C6000304601F09BFC072CEED170BD024801F095BC00BF187A0000087A000008B501F03A
:201C800077FE014B187008BDC4120020034B197806204A1C1A7001F011BC00BFC4120020D8
:201CA000F8B5FEF77FFD104E0746344600250C2001F01EFC2146FFF755FF103420B9013581
:201CC000102DF4D10020F8BD062006EB051501F0FDFB2B7B8342F5D1A868381AB0F5206F4C
:201CE0008CBF00200120F8BDBC040020F8B5174E0024374635460C2001F0FAFB2946FFF71E
:201D000031FF1035F8B90134102CF4D10F2407EB0414254654F8100D6168A268E368A64250
:201D20000FC5F6D1062001F0D1FB3873FEF73AFD0346BB600C2001F0DBFBBDE8F8400146D3
:201D40000248FFF709BF002CE1D1EBE7BC04002040B120B40D4611461A46034628465DF810
:201D6000045B1847704700BF10B5044642884068002105F007FC23886288A06802FB03F206
:201D8000BDE81040002105F0FDBB00BF30B44588ADB14368002202E00132AA420CD01946A9
:201DA00001330C78002CF7D101230B700588806802FB050030BC7047002030BC704728468D
:201DC000F8E700BF30B44488826854B18A420CD00588002301E0914208D00133A3422A445B
:201DE000F9D14FF0FF3030BC704700234268D15C0029F6D00020D05430BC704783688B4280
:201E000008D84288008800FB023081422CBF002001207047002070474FF4616303FB00F0F1
:201E2000000B7047054B10B51B689847044B5B689847044BBDE810405B681847847A000014
:201E4000BC790000C47A0000034A04499079D37903EB00230B807047D8120020BC120020D5
:201E6000064B074A01211960D2F8503513F0FF03FAD1C2F8FC3F0120704700BF101000401A
:201E800000100040A1B1192810D8DFE800F00D770F0F6E65605B453F0F3A0F0F0F36322E00
:201EA0002A0F26221E1A17130020704701207047022070477D230B6000207047002008604D
:201EC000704710230B60002070470A230B600020704720230B600020704703230B60002031
:201EE000704708230B6000207047D8230B60002070471A230B60002070470B230B60002049
:201F00007047244B1B780B6000207047224B93F900300B6000207047204B214A012082B032
:201F200018601368002BFCD00020106012681D4B0192019AD3F8483503F07F035B420B6052
:201F400002B07047184B5B790B6000207047164B5B780B6000207047134BDB7800200860F0
:201F6000002BA1D001230B6070470F4B1B7800200860002B98D004230B607047094B0B4A85
:201F8000D3F80835A2FB03239B080A33DBB20B6000207047C5120020C61200201410004074
:201FA0001C11004000100040BC010020CDCCCCCC0120704770B582B0FFF712FDBFF35F8F82
:201FC0001C4B1B78ABB11C4B1C4902224FF0FF34C1F80843C3F88021C3F88020BFF34F8FFE
:201FE000BFF36F8FBFF35F8F02B0BDE87040FFF7FBBC134903F0FF020A600968114B0191C4
:2020000001991A601A680D490B4B00924FF0FF3502224FF44054009EC1F80853C3F8802170
:20202000C1F804431A60BFF35F8F02B0BDE87040FFF7DABCBC01002000E100E00010004005
:202040003011004034110040144BD3F8FC0F28B1D3F85035DBB2032B01D000207047104B5E
:202060001B7803F0FF0073B10E4B1B78053B7A2BF3D80D4B1B68002BEFD10C4B1868B0FAD4
:2020800080F040097047074A1378053B7A2BE5D892F8800080F00100704700BF0010004011
:2020A000BC010020BC05002030110040341100400D2801D001207047042A05D121B1034B5A
:2020C0001B680B6000207047022070474006002070B51B4CD4F85055EDB2032D82B028D006
:2020E000184B1948194AC4F804051949C3F8102501264FF00062C3F81415C3F80465C3F817
:202100000425FFF757FFD4F8003243F01003C4F80032D4F80032022D43F40023C4F80032A3
:2021200009D00C4B0C4A002119601B680193019B166002B070BD094B1E6002B070BD00BF07
:202140000010004000F00140BC050020381100404C80004058110040041000400810004033
:2021600070B52F4D2F49304A304B00242C6084B02D680095009D0C60096801910199146029
:20218000126802922A4D029A1C6029781B6803934B1F7A2B039A38D88C1E2246691C05F0A0
:2021A000E3F92B195B783F2B2DD89B00DBB2214E214A3370D2F84835204A03F07F035B4255
:2021C0005BB299B20420137001F078F93178032001F074F91A4B2A781A491A74D1F84C0562
:2021E0005860D1F8481599605200DA605D68104881220021023D1D6005F0C4F9FFF768FFD0
:20220000204604B070BDFF23D1E781222146284605F0B8F9FFF75CFF204604B070BD00BF28
:20222000381100400C1100403411004030110040BC050020C512002000100040C612002092
:20224000400600200080004010B5038804461BB340F2D332934224D1822901D0012010BD85
:20226000124A1378053B7A2B16D8114B1B6813B992F8803083B103F083FC01F0B1F801F08E
:2022800067F88021FFF76CFF002805DD80B201F059F8084BDB68984740F2D33323800120EE
:2022A00010BD00230380032010BD00BFBC05002030110040BC7900007D2910B50C4609D8C7
:2022C00001460A48A31C00F8013B224605F04CF9002010BD064A0749074801F05FF9214644
:2022E0007D22064801F05AF9012010BD54060020207A0000307A0000F8780000347A0000E3
:2023000070B4164B1649174C0F22C3F810258A780A3A02EB8202C3F808250879CD798A79EC
:202320004979120642EA0522024342EA0142C3F86C2640F2022600250B48C3F834657F21A9
:2023400040F20122C3F83845C3F83C55C3F81405C3F81815C3F8502670BC70470010004084
:20236000BC010020211001000800000608B5084BD3F8FC2F1AB1FFF7ABFE012008BD0122C7
:20238000C3F8FC2FFFF7BCFFFFF7A2FE012008BD0010004030B585B0FFF7E8FF104A11492F
:2023A0001148124C0023136015680395039D0B600D680295029D03600368019301230198E6
:2023C000236001E00B6813B91368002BFAD0044A044B10681B68B0FA80F0400905B030BD4D
:2023E00048110040441100404C1100402C10004010B5072867D8DFE800F01A2A6666485202
:202400005A04364A3648C9B25171D0F8FC3F5BB11179D479937952791B0643EA04230B43A3
:2024200043EA0243C0F86C360024204610BD01294FD000294AD12B4A294B01211160D3F8A5
:20244000504514F0FF04FAD1C3F8FC4FEDE7A1F10B030F2B3AD8214A214BC8B29070D3F833
:20246000FC2F002AE0D01F4A01201060D3F8504514F0FF04FAD10A3901EB8101C3F8FC4F74
:20248000C3F80815FFF772FFCFE731F007041DD1124BC1F380011970FFF78CFDC5E731F0C6
:2024A000010413D10D4BC9B2D970204610BD0B4A0B4BC9B25170D3F8FC2F002AB4D0C3F89E
:2024C0000C150024B1E70124204610BD0224204610BDFFF74BFF0024A7E700BFBC010020E0
:2024E000001000401010004010B57D2884B04BD82C4CFFF73BFFE378002B3FD163782A4ADE
:202500002A49DBB20120C2F80C350860D2F85035DBB2022BFAD12649264BC2F8043500236D
:202520000B600868019001980B66086E029002988B648B6C0393039BD2F8003223F0100347
:20254000C2F80032D2F80032012143F48023C2F80032116001F08AFA6FF002031C1A01F03A
:2025600085FAE042FBD4104AD2F85035DBB20B2BFAD0FFF7ADFD002004B010BDFFF70AFF75
:202580000028BBD10220F7E70B4A0C4904460C4801F004F821460B4801F000F8012004B0DA
:2025A00010BD00BFBC010020001000400C1000400C11004054060020207A0000307A0000EB
:2025C000F8780000507A000010B50C46FFF774FE2046BDE81040FFF787BF00BF10B51A49C4
:2025E0001A481B4A1B4C00230B6003704B6023708B6082B0CB600B741360136800934FF0E7
:2026000080430121009819601368002BFCD0002414601368019321460F48019B01F06CF8FC
:20262000214681220D4804F0ADFF0D4B0122C3F8FC2FFFF765FE0B4A1378DBB21370FFF7FB
:20264000B9FC204602B010BD40060020C512002000010040C6120020AC010020BC0500209C
:2026600000100040BC010020074A1378053B7A2B07D8064B1B6813B992F88000704701200B
:2026800070470020704700BFBC05002030110040154B1B7803B1704700B503F0FF02134B26
:2026A000196883B029B9124B1A6882B903B05DF804FB1A601B6800930E480F4B009A012266
:2026C00083F8802003B05DF804EB01F0CFB819601B68019381220848019B04F053FF03B058
:2026E0005DF804EBFFF7F4BCBC0100203011004034110040AC010020BC05002010B568B979
:202700000E4CA368012262703BB1D3E900230020A2609847A368002BF7D110BD0128FCD1D2
:20272000064C2369A070002BF7D0D3E900230120226198472369002BF7D110BDD406002011
:2027400010B50B4C237882B013B1852002B010BD08486360A3602361E36000F03BF8019017
:2027600000F044F801980123237002B010BD00BFD4060020FD26000038B5154DAB780446C6
:2027800073B110B14368012098470020FDF76CFEEB680133EB600020BDE83840FDF76CBEFE
:2027A00003F0FF00FDF760FE64B12A6942B1944208D0134601E09C4204D01B68002BFAD127
:2027C00022602C61EB68002BE2D100F025F8DFE7D4060020044A137923B901211060918093
:2027E0001846704785207047E8060020084B1A68D20704D4C02283F8002301221A60054A68
:202800004FF080410123C1F818351370704700BF00E100E01B13002010B4094B094A0021FA
:20282000196083B01B680193019C4FF0804102200123C1F80403136003B05DF8044B7047B1
:20284000040100400800004010B5174B1A6882B062B10021154A19601B68507900934FF0E6
:2028600080410123009CC1F8083398B1104B1A68BAB100221A601B6801934FF0804202217B
:202880000A4B0198C2F808131B68012002B0BDE810401847116853718847054B1A68002AC3
:2028A000E7D102B010BD00BF00010040E80600200401004030B41F4C94F86A3082B0002BBC
:2028C00033D104F12F03204604F15F01FF2203F8012F8B42FBD14FF0FF3222600123072BE5
:2028E00088BFE11803F1010340F8042F88BF81F858200C2BF3D11049104B0020C022888044
:20290000606683F8062340221A600D4B0D4A18601B680193019D01214FF0004384F86A10FB
:20292000C2F8043302B030BC7047082002B030BC704700BFF00600205407002000E100E0C3
:202940007C61004000600040034B93F86A00003818BF0120704700BFF0060020F0B4454F83
:202960003B1893F93030002B5DDA91F802C0CCF3400CBCF1000F0CBF0823002307EB830412
:20298000A4F104040CBF0C26082602E001339E424CD954F8045F0135F8D13C1847F82320D0
:2029A00084F83030BCF1000F4FD08A7854071AD4D5074ED41F284C7887BF2F4D00F01F0239
:2029C00002464FF0A04502F5E072A40045F822402A4DC40800F0070C2E5D012202FA0CF211
:2029E00032432A558A7812F0020222D09B0003F1804303F5C0430978D3F8104524F44F3460
:202A000024F44074C3F8104502020904D3F8100501F4403102F47C520A430243C3F810253D
:202A20000020F0BC70470820F0BC70470420F0BC7047083B1F44097897F8603043EA8113FA
:202A400087F860301046F0BC7047FA1882F85800ABE71F2887BF084A00F01F0404464FF0BD
:202A6000A04202EB8402D2F8004724F00204C2F80047ADE7F006002000030050540700205D
:202A800070B4324C251883B095F93030072B22DD234493F858309B09032B46D0012B0CBFAC
:202AA0004FF400324FF440321F288ABF284B4FF0A04300F01F0003EB8000D0F8003723F434
:202AC0004033C0F80037D0F800371A43C0F8002703B070BC7047DAB2072AF9D8980000F1AC
:202AE000804000F5C04003F140029200D0F8106592B202F1804202F5C04246F00106C0F835
:202B000010650020106012680192019A0029DFD095F9302054F82220002AD9D00D49012278
:202B200002FA03F3C1F80433D2E71F288ABF084A4FF0A04200F01F03D2F8102598BF034646
:202B4000DA4002F0010202321204ADE7F00600200003005000600040194B034493F93030E8
:202B6000072B13DD1F288ABF164B4FF0A04300F01F0003EB8000D0F8003723F44033C0F862
:202B80000037D0F80037C0F800377047DAB2072A14D810B49A0002F1804202F5C0420A4C4E
:202BA000D2F81005012120F0010001FA03F3C2F81005C4F808335DF8044B7047704700BF7B
:202BC000F006002000030050006000402DE9F04F002289B0CDE9022216461546704B714C33
:202BE0007148012204E0043383424FEA420211D019680129F7D1D4F804131142F3D01D60D2
:202C0000196800910433834246EA020600994FEA4202EDD1654B1A68012A07D016F0FF0F52
:202C200017D1002E32DB09B0BDE8F08F00221A601B6801934FF0A042019BD2F810255C4B7E
:202C40000292D3F81035039316F0FF0F1ED046F00046584F01250024A30003F180432E4201
:202C600003F5C0434FEA45050BD0D3F8100557F82420D3F81015C0F30520C1F3014102B117
:202C800090470134082CE7D1002ECCDA4FF0FF33494D0DF1100ACDE906330022CAF8042052
:202CA0000492A5F16408454C0027012614F9010B431C32D0C0F3C20E08AB03EB0E0C00F0F5
:202CC00007031CF8081C06FA03F31942C2B200F03F0022D008EB0009910999F9309058F894
:202CE0002990B9F1000F4CD003294CD01F288BBFDFF8BCE04FF0A04E02F01F0202460EEB79
:202D000082021CF818ECD2F800C71EEA030FCCF3014C1BD1BCF1030F3CD0A542C6D1002FFC
:202D200081D04FF0A0430299D3F81035204A9942D2F8102503D1039991423FF474AFDDE9D2
:202D40000401CDE90232CDE90601ACE7BCF1020FE3D1032904D0B9F1000FDED0C847DCE789
:202D60004FF4403CD2F8003723F44033C2F80037D2F8003701374CEA0303FFB2C2F8003701
:202D8000E9E70329C9D11AF80EB04BEA030B0AF80EB0ABE70329DED14FF4003CE2E700BF56
:202DA0000061004000600040206100407C61004000030050F0060020540700205007002099
:202DC00010B54FF0804386B0D3F80443620705D5D3F8082103F58473002A4ED1A30603D5F4
:202DE0002A4B1A68002A3FD1600603D5284B1A68002A2FD1210602D5264B1A680ABBE205A8
:202E000002D5254B1A6892B9A3050ED5234B1A685AB100221A601A68214B0592059A1B68D5
:202E2000022006B0BDE81040184706B010BD00221A601B4A1B68049301201368049A9847AF
:202E4000E2E700201860164A1B6803931368039A9847D4E700221A60124A1B6802930120B5
:202E60001368029A9847C5E7002018600D4A1B6801931368019A9847B6E700221A600A4A28
:202E80001B6800931368009A9847A7E714010040180100401C0100402001004024010040C9
:202EA00064070020600700205C07002008B5FFF787FFBDE80840FFF7C7BC00BF074B08497C
:202EC000084A0020186082B01B680193019BD1F808051368C0B202B0184700BF00D100407F
:202EE00000D000406807002070B443791E4C1F4E03EB430546F82320655D8DBB90F90430FE
:202F00008A78002B24DB03F1604303F561435201D2B283F8002390F90430002B07DB144DB2
:202F200003F01F0601225B09B24045F8232003680A88C3F8082543790879C97803EB4303E9
:202F4000E218012550709170E554002070BC7047084D03F00F0352011D44D2B22A76DAE761
:202F6000082070BC704700BF6C0700207007002000E100E0FCEC00E00368044A0121196080
:202F8000437903EB43030221D15470476C07002010B403680022C3F8002183B0D3F8003153
:202FA000026801930123019CC2F8443311B10268C2F8043303B05DF8044B70472DE9F041AF
:202FC000274F284EDFF8A08084B000244FF48035D7F804332B4211D056F824200023E0B223
:202FE00062B1C7F84853C7F8085346F8243056F824300393D8F80030039A98470134032CA0
:203000004FEA4505E4D1164BD3F80423D10702D5D3F80021C2B9124BD3F80423920710D542
:20302000D3F804216AB10022C3F80421D3F804210D4B0192019A1B68052004B0BDE8F041DB
:20304000184704B0BDE8F0810022C3F80021064AD3F80031029304201368029A9847DAE78D
:2030600000B0004040B100407007002010B5074C236882B03BB1064B1B689847002323607E
:2030800023680193019B02B010BD00BF000101407407002070B5114B114A1D781160DDB9E2
:2030A000104E027801211970C6F80C25416804464FF47A720023C803490C04F0CBF8C6F8C4
:2030C0000405237A084A5B01DBB282F810334FF480331360284670BD082070BDC8120020FF
:2030E000740700200000014000E100E0044B054901220220C3F804231A600870704700BF07
:2031000000000140C812002010B504460020FDF7ABF90E4A1378072B11D80D492370581C52
:203120001070D1F80805012202FA03F30343C1F8083500240020FDF79FF9204610BD0424BD
:203140000020FDF799F9204610BD00BFC712002000000140034B044A00F5C07043F8202061
:20316000704700BF000001403546526E014B00221A6070477807002010B5044600F030F9F7
:203180000D4A0E4B1188186800F03AF974B121460D2000F0A1F90A490C2000F09DF9094BA7
:2031A000002108469B689847012010BD06490D2000F092F9EFE700BFE8120020E412002014
:2031C000D8120020BC790000007A000030B50E4B1C6883B0B4B100F0BBF8054600F0CCF83A
:2031E00001460C20019100F083F900900D2000F07FF9DDE900210346A446284603B0BDE859
:203200003040604703B030BD78070020014B1860704700BF78070020704700BF704700BF93
:2032200000207047002070470020704701207047704700BF0120704701207047704700BF95
:2032400000207047704700BF00207047704700BF704700BF002070470120704701207047D7
:2032600000207047704700BF2DE9F0410E4A0F4B16781F88F419802C03DD00242046BDE80B
:20328000F081DFF8308032464146054604F06CF9074B1B7833443A46A81958FA83F104F03C
:2032A00063F92046BDE8F081C9120020BE120020C01200207C07002070B4134B134D144A76
:2032C0002C781B781288234452FA83F39BB21A18802A15DC013B1BB2002B0CDB0D4A591CF3
:2032E0001E1811443244013B11F8016D02F801691BB25E1CF7D120442870012070BC7047A7
:20330000002070BC704700BFC0120020C9120020BE1200207C070020084A138883420BDBD3
:2033200010B407490C8880B21B1A20440880138001205DF8044B704700207047BE120020BC
:20334000C0120020014B1880704700BFBE120020044A054B12781B780448134450FA83F016
:20336000704700BFC0120020C91200207C070020004870477C070020014B1888704700BF43
:20338000BE1200200549064A064B127808781B88104453FA80F080B2704700BFC9120020ED
:2033A000C0120020BE12002010B50A4B0A4C0B49002220461A605A609A60DA601A615A6141
:2033C000FEF7CAFB04F108000449BDE81040FEF7C3BB00BFFC120020EC120020007A0000FC
:2033E00004480549054A002303800B801370FFF7DBBF00BFC0120020BE120020C912002004
:2034000070B5802982B00B4A0B4D0C4E01900C464FF0000328BF8024137033802B80FFF71E
:20342000C3FF01990648224604F09EF820462C8002B070BDC9120020BE120020C012002022
:203440007C070020F0B40C4B0C4A1C685D689F68DE68C6600460456087601C695D694561DB
:20346000046154689068D36812680A604C608860F0BCCB60704700BFFC120020EC120020E7
:2034800070B40C4B026844688568C668DE601A605C609D60026944695C611A61064B0C68FA
:2034A00048688A68C968D9601C6058609A6070BC704700BFFC120020EC120020024B23F87C
:2034C00010100120704700BFFC120020014B33F810007047FC12002008B5044B0C3803EB5D
:2034E000C000FEF739FB012008BD00BFEC120020024B0C3803EBC000704700BFEC1200204D
:2035000001490248FEF72EBB007A0000F412002008B5FEF75BFABDE80840FEF7FBBA00BF3C
:2035200008B5FDF793F8002000F028FA02F0A4FA00F002FC4FF08052064BD2F8A800D2F801
:20354000A4205A604CF6F4613622D87019809A7008BD00BFD81200200148002100F0CCB8A7
:20356000F001002010B5FEF73BFA0446BFF35F8F00F050F900B930BFBFF35F8F2046BDE8D5
:203580001040FEF731BA00BF0AB90020704708B508461146FDF74AFD002008BD0FB400B5A8
:2035A00083B004AA054852F8041B019201F0E6FB03B05DF804EB04B0704700BFD0010020FD
:2035C0002DE9F843DFF8A880D8F80040844205460F4645D0002C36D0234601E0002B32D067
:2035E0001B689D42FAD173B3204EAB7BD6F80090F3B10023AB73002C34D0A54209D0A37B93
:2036000013F0010F20462A464FF0870101D000F031F82468002CF0D1AB683BB1BD4205D0C4
:2036200035600022832105F10C009847D8F80040A5420AD02CB12368AB420CD01C46002CBE
:20364000F9D1C6F80090BDE8F8832B68C8F80030C6F80090F7E72B682360C6F80090F2E746
:203660002346C0E7AB68002BD8D1EAE77C090020800900208368BBB170B504460B4E0220F3
:20368000A073346004F10C000D4698470238012804D9832D02D00123A37370BD214620465A
:2036A000BDE87040FFF78CBF704700BF7C09002038B50B4A0B4B146800221A707CB1012546
:2036C00001E024685CB1E37B002BFAD0E581204600228221FFF7CEFF2468002CF3D138BD58
:2036E00080090020CD120020024B1878421C1A70704700BFCB12002070B50E4D2C68844210
:2037000007D00A4634B1234600E01BB11B689842FBD170BD0028FCD0074E04600121002340
:2037200034688173838181212860FFF7A3FF346070BD00BF800900207C09002030B4074B2F
:2037400007480849084A094C8A251D70002303700B601360237030BC704700BFCB12002080
:20376000CC120020800900207C090020CA1200202DE9F041224D2B78FBB9224E3378C3B165
:203780002148224C027802EB420704EB8701013202F01F02013B0270886814F82770D1F8DB
:2037A0000480DBB2337058B1812F1ED0827BD2071DD428781844BDE8F081FFF779FFDCE7A4
:2037C000134A14685CB9F4E7A37B13F0010F20464246394601D0FFF74DFF24685CB12B7833
:2037E000002BF1D0FFF764FFEEE70123837342463946FFF73FFF337828781844BDE8F0819D
:20380000CD120020CC120020CA120020FC07002080090020024A034B10781B78184470471B
:20382000CC120020CD12002070B40D4D2C78202C12D00C4B0C4E1B78234403F01F0303EB8D
:20384000430301342C7006EB8304C4E9012006F82310002070BC7047012070BC704700BF14
:20386000CC120020CA120020FC07002018B1837B013B012B00D97047024A01231370C37343
:20388000704700BFCD120020FDF7C8BB10B5044603F080FE01462046FDF7C8FBBDE8104063
:2038A0000A20FDF7BBBB00BF08B50448FEF75CFABDE808400248FEF757BA00BFE401002060
:2038C000D801002038B50E48FEF760FA044678B10C48FEF75BFA0546206058B1FFF7C4FCC2
:2038E00005F19A01A5F8800005F18200FFF7AAFD204638BD214602482C46FEF763FAF7E757
:20390000D8010020E4010020006800F19A018230FFF798BD10B5014604460748FEF76EFAB6
:2039200000B910BD21680548FEF74CFA21460248BDE81040FEF746BAD8010020E401002057
:2039400010B5014604460948FEF758FA00B910BD2468B4F880102046FFF752FD04F19A01F0
:2039600004F18200BDE81040FFF78ABDD801002008B502F077F980B208BD00BF0F4B012154
:20398000002219601946C3F80021D1F80031002BFBD0D1F80805094A0023C0B2C1F80031B9
:2039A000D2F80031002BFBD0D2F80815012340EA012080B2536002F027B900BF00D000403A
:2039C0000023013A0271016043718371704700BF10B4817942790479521A224208D00346B0
:2039E0004A1C00682240405C9A715DF8044B70474FF0FF30F9E700BF10B4164A164B1749A3
:203A00000020106083B012680192019AD3F8102522F00F0242F00802C3F81025D3F80825F4
:203A200042F00302C3F80825D3F804254FF4803422F003024FF48070C3F80425C3F804434C
:203A4000C1F88001086001221A6003B05DF8044B704700BF408100400080004000E100E0D8
:203A6000014BC3F84005704700800040034A044B01211160D3F84405704700BF44800040C6
:203A800000800040064B1A6802B97047002282B01A601B680193019B02B000F005B800BF82
:203AA00040810040FFF7A8BF10B5084C206858B1D0E90131002222609847236823B1BDE88C
:203AC00010401868FFF7CCBF10BD00BF040F002010B4174B83B000220124ADF804200092DB
:203AE0001946C3F82CD61C60D1F80031002BFBD0002401230E4AC1F800414B60D2F80431FA
:203B0000002BFBD0002401230949C2F804419360D1F81431002BFBD002AB03EB4000002321
:203B2000C1F8143130F9080C03B05DF8044B70470070004001207047802801D00120704763
:203B400030B4144B14490120C3F8000500224FF4003509240720C3F81855C3F81045082591
:203B6000C3F814250224C3F82815C3F820050320C3F82425C3F83815C3F83055C3F83425D0
:203B8000C3F8F045C3F8F425C3F8300630BC0120704700BF00700040001202002DE9F041E2
:203BA0000488752C064607D07C2C37D0A4B1002303800320BDE8F081DFF8D0802E4D98F8A0
:203BC00000202E4F00233B602B6012B32C4CE256002A41DB2B6832E02A4F274DFFF784FD3B
:203BE000294B3A6818702C60002A43D02346244C984604F8038000219368802098472B68FA
:203C000001332B6057F82320002AF2D1DBB21F4A1370752333800120BDE8F0811A4B1B7873
:203C20008B4216D1144D164CDFF86080134F2B683A68E15C01F07F010132E1543A6098F87F
:203C40000020013393422B60C1DB3B68002BB9D1DFE70120BDE8F0810A4A0B4952F823208A
:203C600009780020FFF7E0FD0028E0D17C23338001209FE71346CAE70C0F0020080F002082
:203C8000E0120020C40100201C130020CE12002070B50488672C06461BD0792C33D05CB3AC
:203CA00000230380032070BD1E4C1F4923681F4A0978581C002520602846D554FFF7B4FD70
:203CC0001B4B2A4618688521FFF7AEFD30B300232360184C134D06E00A28E5D00D28E3D045
:203CE0002B687E2B15DD2046FFF772FE431CF3D167233380012070BDFFF7F6FC0A4A094B8C
:203D000010701C60E5E7852901D0012070BD054CDDE706495A1CC8542A60E4E77923338074
:203D2000012070BD900F00201D130020100F00207C090020940F002008B505490548802285
:203D4000FFF73EFEBDE8084003480021FFF7D4BC9C0F0020940F00200002002030B5038832
:203D600085B0044653B140F2DD2293420FD11148FDF73EFA80B9012005B030BD0D484FF4C1
:203D80002071FDF721FA40F2DD232380F3E700230380032005B030BD074A0848084B0A214A
:203DA00001AD0560DB681180002098470148FDF715FAE8E7BC100020E8120020E4120020E6
:203DC000C47A000010B503880446DBB140F2FF22934221D11748FDF70BFA08B3164B03F1FD
:203DE000080013F8012F042A02F101011AD883421970F6D10F48FDF7F1F940F2FF2323802A
:203E0000012010BD0B484FF42071FDF7DDF940F2FF232380012010BD00230380032010BD48
:203E2000012010BD054B064900220120C3E900220870DFE7CC100020DF100020E01000208B
:203E4000CF1200202DE9F04FDFF87C8181464046022383B000F8023B0C464849FDF77CFE0D
:203E6000474BA8F80C4000205B6888F80A00984780B2FDF7D1FF03464248C8F81030FDF7BB
:203E80007DFE034608F114001D682E1D3146FDF763FE002D56D03C4BDB6801933B4C002756
:203EA000A24650463146FDF75DFE0AF1080A20B90137092FF5D14FF6FF7705F10C0A4FF09C
:203EC000000B20465146FDF74DFE083430B90BF1010BBBF1090FF4D14FF6FF7B39462C4833
:203EE000FFF75CFB59462B48FFF758FB297D2A48FFF754FBB5F916102848FFF74FFB298B85
:203F00002748FFF74BFB27483146FDF725FE26485146FDF721FE2B7D88F82C30B5F9163069
:203F2000A8F82E302A8B214BA8F83020204AC3F80080342313804846019B98472D680DB187
:203F40002E1DABE71B4A1C491C48104DFFF726FB1B48FFF79BFC002428464946FDF702FEDD
:203F6000083520B90134092CF6D14FF6FF741548214603B0BDE8F04FFFF710BBD81200201C
:203F80003C7B000004110020C47A000048020020647B0000707B0000807B0000907B0000BD
:203FA000A07B00004011002048110020E4120020E8120020B07B0000F0780000F8780000C9
:203FC000B87B0000D87B00002411002038B505460948FDF7D3FD60B1044601E0246844B1FC
:203FE0002946201DFDF7BEFD0028F7D004F10C0038BD002038BD00BF041100202DE9F04F23
:20400000048887B00546002C00F0E880B4F5267F40F0DE808F4BDFF89CA25F68DFF898927B
:20402000DFF898828C4E0120B847CAF800000220B8470346DAF80000C9F80030FCF730F98A
:204040000346D9F80000C8F80030FCF75DF9034600203360B84780B2FDF7DEFE7F4A804B7C
:2040600010605B68002098477E49DFF854E2D1F80090D8F800207C4BDFF848C2DFF84882A8
:204080004EF829200028B8BF033009F101028010366843F82960022A4CF829000A60C8F80D
:2040A000000040F3AE80714E714F30681A680390D3E9010A3B68049305976E4B039F1F60FC
:2040C000BB18049FDFF804926B4A03445344BA46DEF80070DCF80000BA44D9F80070384495
:2040E00082FB037BABEBE373DEE901BED344DCE901AC039F33605044FB1A6044DFF8A8C108
:20410000049FCCF80070DE44002B82FB0ECADFF8C0B1574F82FB00C2B8BF5B42A2EBE07008
:20412000AAEBEE7E4FF0010C0022132BC7F800E0C9F800008BF800C00A600DDD049BA3EBAE
:204140000E0EBEF1000FB8BFCEF1000EBEF5FA7F02DB01238BF80030DFF878914749484663
:20416000032300F8023BFDF7F7FC059B3B4A31681B681268D8F800604148C9E90331C9E9F1
:204180000526FFF723FF00285BD03E493E4A3F4BC1F800901C21DB68118098473C4A3D49AB
:2041A0003D48FFF7FBF9D9F80C300093D9E90423D9F818103948FFF7F1F900238BF80030D7
:2041C0003748FDF70BF801202C8007B0BDE8F08F002403202C8007B0BDE8F08F30484FF438
:2041E000C071FCF7F1FF2F4B1A884FF651539A4216BF4FF42674032001202C8007B0BDE8CC
:20420000F08F1C4B194E1B683268DFF8C4B09B1A002BB8BF5B42132B06DC9BF80030002BE7
:20422000CED0134B059397E7114A1F4B05921B6812689B1A002BB8BF5B42B3F5FA7FECDB37
:2042400087E7134A19491448FFF7A8F91848FFF71DFBB2E73C7B0000B81000209C120020CA
:2042600010830000DC100020A8100020A0100020E8100020A410002056555555D8120020AC
:2042800010020020E4120020E8120020C47A0000B07B0000F0780000F8780000F47B00000C
:2042A00068120020BC120020EC100020407C0000487C0000FC100020B41000200011002099
:2042C000F010002080120020781200207C120020D21200200811002038B505460948FDF7FA
:2042E0004DFC58B1044601E024683CB12946201DFDF738FC0028F7D0204638BD0024204620
:2043000038BD00BF041100202DE9F04F2A4A2B492B4885B0FFF742F92A48FFF7B7FA2A4813
:20432000FDF72CFC00283BD0DFF88CB0DFF88CA007464FF00008254C07F10409264600257D
:2043400030464946FDF70EFC083620B90135092DF6D14FF6FF7507F10C090026204649462F
:20436000FDF700FC083420B90136092EF6D14FF6FF765A4651461248FFF710F93B8B02935E
:20438000B7F9163001933B7D00934146104833462A46FFF703F93F6808F10108002FCAD11B
:2043A000054A06490648FFF7F9F80A4805B0BDE8F04FFFF76BBA00BFB07B0000F0780000D2
:2043C000F8780000907C00000411002048020020187D0000D47C00002DE9F84381460F486E
:2043E000BDF820800F4616461D46FDF7CFFC98B1044649460430FDF7AFFB394604F10C0021
:20440000FDF7AAFB2675E582A4F8188021460448BDE8F843FDF7B4BBBDE8F883880200200D
:20442000041100202DE9F041048884B0064664B140F26D239C425CD15B48FCF7D9FE00287D
:2044400066D1012004B0BDE8F081584A5849594F5948FFF7A3F85948FFF718FAFD6A0C21E0
:204460000120A847BB6A03A9012098474F4A50495148FFF793F803995148FFF78FF82146F6
:204480000620A847494A0546002838D148494A48FFF784F84B482946FFF780F84A4D002438
:2044A0002A4600239C420CBFFF2100210133082B22F8021BF6D10134082C05F11005EFD1E6
:2044C0004248FDF751FC4248FDF754FB41490023084600931A46FFF77FFF3F48FEF796FED2
:2044E00031484FF42071FCF76FFE40F26D233380A7E700230380032004B0BDE8F0813749F9
:204500002D48FFF74BF821463548FFF747F8C5E7344D264A2B782649274801332B70FFF7F1
:204520003DF829783048FFF739F82B78022B29D92E4CDFF8D88004F148072046414608341E
:20454000FDF710FB10BBA742F7D1294C2378FBB12378012B16D1274F2748FFF797F938468D
:20456000062300F8023B1B49FDF7F6FA2349244A244B0F600A21DB681180002098470023BC
:204580002B7023700848FCF729FEAEE7184CDFE7064A12490848FFF701F81B48FEF7FEFF85
:2045A00001232370D4E700BF8C120020B07B0000F0780000847A0000F8780000587D000036
:2045C0006C7D0000AC7D00001C1000208802002004110020D812002001480000407C00008F
:2045E000887D0000D0120020C47D000048020020D112002058110020107E0000E4120020D9
:20460000E8120020C47A0000DC7D0000100200202DE9F04182B01646BDF820801F460546DD
:20462000FFF75AFE98B1044617490430FDF79AFA50B9238B434507D2B4F91630DB1B002B51
:20464000B8BF5B42052B15DC02B0BDE8F0813B46324629462846CDF80080FFF7BDFE0B4A3C
:204660000B490C48FEF79AFF0B4802B0BDE8F041FFF70CB9054A06490648FEF78FFF0748B0
:20468000FFF704F9E782DFE7D8120020B07B0000F0780000F8780000287E0000547E000073
:2046A0002DE9F043804685B03048314CFEF776FF08F102072646002530463946FDF752FA8F
:2046C000083620B90135092DF6D14FF6FF7529462848274EFEF762FF2748FFF7D7F827488A
:2046E000FFF7D4F82448FFF7D1F808F11407002530463946FDF736FA083620B90135092DF8
:20470000F6D14FF6FF751A4F08F11C09002638464946FDF727FA083720B90136092EF6D1FD
:204720004FF6FF7608F12409002720464946FDF719FA083420B90137092FF6D14FF6FF776F
:2047400098F82C00B8F92E40B8F830300293CDE900043B46324629460948FEF71FFF064805
:2047600005B0BDE8F043FFF791B800BF787E0000480200207C7C0000907E0000E87E0000E2
:20478000207F0000184B1A884FF651539A4200D1704730B5002183B004461448FDF7E2F97A
:2047A00070B1134D286848B91249134A134B0C600421DB681180984701232B6003B030BD3E
:2047C0000C490E4B0C4ADB680C600848019304211180FFF7FBFBDDED017A17EE903A03B0D9
:2047E000BDE83040184700BFBC120020100200209C100020E4120020E8120020C47A00002C
:204800002DE9F04F044685B001201E460D469046FDF7EEF82778A04AA049A148FEF7BEFE30
:20482000A0482A463946FEF7B9FE7B1E052B00F2CA81DFE813F012007A00B2000A011601C5
:2048400006003346424629462046FFF79BFF0120FDF7FAF805B0BDE8F08F0420FEF736FEBF
:204860004FFA80F919F1450FC0F29681012004F10A08FDF7BDF88C4E8C48DFF83CB2A51C4A
:20488000414602AFFDF768F929463846FDF764F92846711CFDF760F98548FEF77FFE06F1CF
:2048A000080A16F8011F5846FEF778FE5645F8D10A20FEF7E9FF7F487F4EFEF76FFE15F841
:2048C000011B3046FEF76AFEA845F8D10A20FEF7DBFF0FFA89F9A38A0093394638464B4661
:2048E0000122FFF795FE41463846FDF73BF9002800F06081684A69496948FEF74FFE6F48D8
:20490000FEF7C4FF6E496F4A6F4B0C6004211180DB6800209847FFF7F7FC3846A18AFFF7C9
:2049200091FA0120FDF790F891E70120FDF760F8594A5A495A48FEF731FE6448FEF7A6FF18
:204940002046FFF7ADFEA37A0133A3720420FEF7BDFD43B213F1450FC0F21E81A2890092BC
:20496000A27A41464046FFF753FEA1894F48FFF769FA494A49494A48FEF710FE5448FEF762
:2049800085FF4A48FFF722FB4D494E4A4E4B0C600421DB681180984759E70420FEF796FDF7
:2049A00040B24530C0F2F8804A4F20686168A268E3683D460FC53B7820696169A269032B91
:2049C00007C57FF444AF444D00242E4607F1020830464146FDF7C6F8083620B90134092C4A
:2049E000F6D14FF6FF74DFF81881002628464146FDF7B8F8083520B90136092EF6D14FF679
:204A0000FF7631463548364DFEF7C8FD79693548FEF7C4FDB9693448FEF7C0FD7969FA6847
:204A2000324885FB0163C917C1EB23132146FEF7B5FDD7E9042385FB0315DB172146C3EBC2
:204A400025132B48FEF7AAFD01E7162D5AD0124A28491348FEF7A2FD29462748FEF79EFD90
:204A6000F5E654F8020F1C4D616802AF3B4603C3002428463946FDF775F8083520B9013417
:204A8000092CF6D14FF6FF741C4A135D002B3FF4DEAE013B1355DAE6B07B0000F0780000AB
:204AA000F8780000507F0000D712002010020020987F0000C47F0000187A0000F87F000019
:204AC000E4120020E8120020C47A0000248000004080000064110020480200207480000011
:204AE000F31ACA6B94800000AC800000C4800000F4800000407C000024810000E01000200B
:204B0000661100200420FEF7E1FC344A3449354D81463548FEF742FD3448FEF7B7FE2F4A74
:204B20002F493148FEF73AFD4FFA89F92F4604F10208002638464146FDF714F8083720B9D6
:204B40000136092EF6D14FF6FF7631462848FEF725FD224A22492448FEF720FD04F10A070D
:204B6000002628463946FCF7FDFF083520B90136092EF6D14FF6FF7631461E48FEF70EFD51
:204B8000164A17491848FEF709FDA18A1A48FEF705FD19F14A0F08DA104A18491248FEF727
:204BA000FDFC1748FEF7FAFC51E616494046FCF7D9FF4CE6A38A0093A27C4B464046394625
:204BC000FFF726FD96E6054A0C490748FEF7E6FC39460D48FEF7E2FC3CE600BFB07B0000C3
:204BE000F078000048020020F87800003C810000588100007081000084810000407C00002B
:204C00007C7F0000D81200209C810000074B82B001AA9A42019304D9CD2103F8011B93421C
:204C2000FBD10348002102B0FEF766BD28130020A402002038B5124C124D00F0A1FF23787C
:204C4000CD2B08D0AC4202D30EE0AC4212D014F8013FCD2BF9D1AC4202D30BE0AC4209D080
:204C600014F8013FCD2BF9D000F08AFFAC4203D2281B38BD00F084FF4FF0FF3038BD00BF1E
:204C8000281300200000042070B5038804463BB1922B0ED11F48FCF7ABFA70B9012070BD9D
:204CA0001C484FF4A061FCF78FFA92232380012070BD00230380032070BDFFF7BBFF164E20
:204CC000164B051EA6EB030615DB002E13DBB5420DDD134B1B68002B09DD124A12491348C5
:204CE000FEF75CFC124832462946FEF757FC0948FCF774FAD9E70A4B1B68002BF7DD094A42
:204D000009490A48FEF74AFC324629460948FEF745FCECE7A0120020000004202813002022
:204D2000A801002048820000307A0000F87800007C82000050820000102A2DE9F04114461B
:204D400006460D460DD90C4F01E0102C0CD93368286810223946103C98470028F5D0BDE8D8
:204D6000F0811046002AFAD03368286802492246BDE8F041184700BFE48200000B78002B92
:204D800000F0DF842DE9F04F91B0904600228A468146009204E01AF8013F002B00F0D68062
:204DA000252BF8D1514500F00381AAEB0104D9E9003022469847002840F05881009A9AF8A0
:204DC000003022440092002B00F0C3809AF801300AF10104002B00F0BC800021A3F120025C
:204DE000102A0AD8DFE802F0AF0909AC09090909090909A909A60909A100A3F13102082A2E
:204E000040F2BD802A2B00F0C88000262E2B00F0AB804FF0FF3B6C2B00F09F80682B00F05A
:204E2000CA807A2B03D1637841F060010134782B00F2EA80DFE813F08D00E800E800E800FF
:204E4000E800E800E800E800E800E800E800E800E800E800E800E800E800E800E800E800D2
:204E6000E800E800E800E800E800E800E800E800E800E800E800E800E800E800E800E800B2
:204E8000E800C401E800E800E800E800E800E800E800E800E800E800E800E800E800E800B5
:204EA000E800E800E800E800E800E800E800E800E800E800E800E800E800BD01E800E8009C
:204EC000E800B601AF01A801E800E800E800E800E800E800E800E800E800E800E800E800FA
:204EE000E800E800E800E800A101E800E800E800E800E800E800E800E8009A01E800930119
:204F00001F015B0169016201E8001F01E800E800E800E80085017E017701E800E8007001E2
:204F2000E8005401E800E8004D0141F0100114F8013F53E741F00101F9E741F00601F6E726
:204F400041F00801F3E741F00201F0E78A457FF42CAF009811B0BDE8F08F63786C2B31D025
:204F6000013441F0600162E76378A3F13000092804F101022BD92A2B3AD0144649E7002646
:204F800006EB860603EB460614F8013FA3F13002092AA6F13006F3D938E7D8F80060637852
:204FA000002E08F10408B8BF41F0010101342DE79AF8003007E76378682B20D0013441F057
:204FC000400134E7A37841F0800102342FE74FF0000B0BEB8B0B03EB4B0B12F8013F2F2B9E
:204FE000ABF1300B40F29282392BF2D9144612E7A378D8F800B0023408F104080BE7A3782F
:2050000041F02001023412E701F4E0630F46B3F5A06F04F1010A39D000F29181B3F5407F57
:2050200000F09C81B3F5806F40F0D180D8F80050019508F10408002D40F02082C44B0193EE
:205040000625BBF1000F02DB5D4528BF5D46AE428CBF761B0026F80740F12382D9E90030A8
:2050600001992A469847002800F0B9814FF0FF3011B0BDE8F08F01F4E06343F48073B3F598
:20508000A06F41F4245704F1010AC5D1012ED8F800308DF82830354638BF0125FA0705F120
:2050A000FF3508F1040840F11C82D9E9003001220AA998470028D9D12A4609F10401484672
:2050C000FFF73AFE009B01330028CFD1EB1800933FE001F4E06343F4807341F4C85796E723
:2050E00001F4E06343F4807341F410678FE701F4E06343F4007341F4024788E701F4E06325
:2051000043F4007341F4813781E701F4E06343F4007341F400777AE701F4E06343F480634F
:2051200041F4806773E701F4E06343F4407341F440776CE701F4E06343F4807341F4885722
:2051400065E704F1010AD8F80030009A1A6008F104086378002B3FF4FCAE514620E601F475
:20516000E06343F4A06341F4A06750E701F4E06343F4007341F4C13749E701F4E06343F491
:20518000807341F4B24742E701F4E06343F4007341F4A1373BE701F4E06343F4007341F49D
:2051A000844734E701F4E06343F4007341F442472DE701F4E06343F4007341F4E13726E719
:2051C00001F4E06343F4C06341F4C0671FE7B3F5807FBED1BBF1000FABBF27F0100701232E
:2051E000CDF804B0019317F40053069307F0E00300F01D81402B00F07C8200F20B81002B41
:2052000000F05A82202B40F09E8298F9002008F10408D317002A73F10001C0F21D82CDE9F1
:20522000022307F4C053B3F5805F00F08C81B3F5C05F00F0E781B3F5006F00F0AD81002340
:2052400005939B460DF13E030493019B9B4534BFA3EB0B03002341F60802019307EA020108
:2052600041F208039942019B00F0138191425B4404D1DDE902120A4340F0588100250795BD
:20528000069A7AB1059A002A40F04C8107F00602022A00F054812F49062A079A04BF0A4631
:2052A000012507922B449E428CBFF31A0023029317F00103059307D1FE0640F1F381DDE9E6
:2052C00001210A44CDE901233DB1D9E9003007992A46984700287FF4C9AE009B019F5B44C9
:2052E000102F009340F2B2811B4ED9E9003010223146103F984700287FF4B8AE102FF4D839
:20530000D9F800301449D9F804003A46984700287FF4ACAED9E9003004995A469847009B5D
:205320001D4400287FF4A2AE019B2B449B46059B002B40F0ED80029B5B44009309E7B3F566
:20534000C06F5BD0B3F5E06F3FF4FDAE01E700BFD8820000147D0000F4820000D8F8001036
:20536000C948CA4D17F4804F08F104080A464FF0000314BF8346AB4600296AD00DF13B0E5D
:205380007146100902F00F0C40EA03701D0902462B461BF80C0001F8010D52EA0300F0D18E
:2053A000BEEB010557D003357823AE4201F8013C4FF030024FF0230301F8022C01F8033CE9
:2053C000A1F1030B8CBF761B0026F9077ED5D9E9003059462A46984700287FF447AE3246F0
:2053E00009F104014846FFF7A7FC009B2B441D4600287FF43BAE73190093AAE6D9E90030F5
:20540000A3490122984700287FF430AE009B013300939EE6602B00F04F81802B40F0938105
:2054200008F1070828F00708F8E80223F2E6402B00F0578115D8002B00F04481202B40F0E5
:20544000998198F800200023CDE9022308F10408E7E60DF13B01302301F8013C042501398C
:20546000A2E7602B00F02E81802B40F0838108F1070828F00708F8E80223D0E62B78002BE2
:2054800000F0488115F8013F002BFBD1019BED1AD7E5012B38BF01230025019307955B4475
:2054A000EEE6324609F104014846FFF745FC00287FF4DCAD0199D9E900302A4698470028B5
:2054C0007FF4D4AD009B2B441D4694E7324609F104014846FFF730FC00287FF4C7AD59461B
:2054E000E9E72A4609F104014846FFF725FC00287FF4BCADD9E9003001220AA99847009B82
:20550000013300287FF4B2AD2B44DFE514468EE4029A09F104014846FFF70EFC00283FF4DA
:205520000AAFA3E55B4A07920125BBE65A495B4A17F4804F18BF0A4607920225A0E6584AF4
:2055400007920125AEE6DDE9022313433FF477AEDDE902231846002315460593DDE9022315
:205560000DF13E0107918C464FEAD20B4BEA437B02F007014FEAD30E30315A4673460CF8A9
:20558000011D52EA0301EFD1079BCDF810C0CDE90250A3EB0C0B58E6DDE90223134300F09A
:2055A000C88000230593DDE902120DF13E03CDE9086407938B46154604971C4658462946DD
:2055C0000A22002301F046FE303204F8012D584629460A22002301F03DFE2F465E46002FEB
:2055E00008BF0A2E83460D46E8D2079B049F089E04942246A3EB020B099C26E6002200235A
:20560000CDE9022317F4804365D10593DDE902231E4DDDE90201014300F085800DF13E007F
:205620000790110902F00F0E41EA03714FEA131C0A46634615F80E1000F8011D52EA030129
:20564000EFD1079B0490A3EB000BFEE5019B002B3FF460AE1F4653E6524207F4C05163EB44
:205660004303B1F5805FCDE9022355D0B1F5C05F45D00123B1F5006F059394D00DF13E0311
:2056800004934FF0000BE0E5B8820000A4820000E0820000D4820000CC820000D0820000AC
:2056A000707C0000029A09F104014846FFF744FB00283FF409AED9E4D8F8002008F10408DC
:2056C000D317A7E5D8F8003000221946CDE9021208F10408A5E50021DDE90223324D059159
:2056E00097E7B8F800200023CDE9022308F1040897E5B8F9002008F10408D3178AE57B042F
:2057000005D50121DDE90223274D059186E7012305937BE7019DB9E6DDE902231846012363
:20572000154605931AE70DF13E034FF0000B04938BE54FF0000B0DF13E03CDF814B004933C
:2057400083E51846704707F4C053B3F5805F06D0B3F5C05F3FF452AFB3F5006F13D0002349
:2057600005939B4600230022CDE902230DF13E0304936AE507F4C053B3F5805F08D0069B5D
:2057800005939B46EEE74FF0000BCDF814B0E9E70699059100230022CDE902230DF13E0384
:2057A0008B46049351E500BFB8820000074A084913681844884202D8106018467047054B60
:2057C0000C221A604FF0FF3318467047B4020020000004201413002010B44FF080414FF057
:2057E00080520020C1F80C015E4BC1F81001C1F83805D2F80414C3F82015D2F80814C3F815
:205800002415D2F80C14C3F82815D2F81014C3F82C15D2F81414C3F83015D2F81814C3F8E0
:205820003415D2F81C14C3F84015D2F82014C3F84415D2F82414C3F84815D2F82814C3F828
:205840004C15D2F82C14C3F85015D2F83014C3F85415D2F83414C3F86015D2F83814C3F878
:205860006415D2F83C04C3F86805D2F840043E49C3F86C050968D2F84424C3F87025082998
:2058800024D04FF08043D3F80024D20744BF6FF00102C3F80024354AD2F8883043F470035B
:2058A000C2F88830BFF34F8FBFF36F8F4FF01023D3F80022002A23DBD3F80432002B1FDB89
:2058C0002B4B2C4A1A605DF8044B70472A4B1B68002BD6D129482A4A2A4C04602A492B4B95
:2058E000FB20C2F818050A681B68294822F00F0203F00F0313434FF400720B600260C0E7A9
:20590000244A0123C2F80435D2F80034002BFBD04FF0102312211F4AC3F80012D2F8003435
:20592000002BFBD04FF0102312211A4AC3F80412D2F80034002BFBD000231649C2F804352E
:20594000D1F80034002BFBD0BFF34F8F0749124BCA6802F4E0621343CB60BFF34F8F00BFDD
:20596000FDE700BF00C000403001001000ED00E0B80200200090D003340100108C560040D2
:2059800000F0004048810300E40E0040580200104096024000E001400400FA05802802D1B8
:2059A000024B00221A600120704700BF04C500400120704730B5134C0123236083B0FEF773
:2059C00055F86FF003031D1A03E0FEF74FF8C54203D5D4F80031002BF7D00A4B0022C3F8BF
:2059E0000021D3F80825D3F80835920544BF6FEA83536FEA9353034A01930123536001982D
:205A000003B030BD00C0004010B541600446FAF7C9FE206010BD00BF10B50446FAF7C2FEB2
:205A2000D4E90021C2F101031844884284BF5218226010BD10B50446FAF7B4FED4E900320E
:205A4000C3F10103184482422CBF0020012010BD074B084AC3F81C0582B01368002BFCD051
:205A60000023136013680193019B02B0704700BF002000401C21004030B4144B1448154DDF
:205A80004FF0A04100220324C3F80025C1F818474024C1F80845C1F8202708240621C3F82D
:205AA000245582B0C3F86C25C3F81445C3F80C15026001680191019C074A04200121C3F8B3
:205AC0000005116002B030BC704700BF002000401C21004000E0D70108200040074B08499C
:205AE000084A0020186082B01B680193019BD1F818051368C0B202B0184700BF08210040CB
:205B000000200040B01200204FF0A0434FF4F0310022C3F80815C3F80C25704700B5104B10
:205B200093E8070085B001AB83E807000D491846FDF7B0FA48B90C48FDF7E6FA60B90B4BA6
:205B400001221A7005B05DF804FBFAF763FC0648FDF7DAFA0028F2D0FAF75CFCEFE700BF61
:205B600020830000095B0000D3120020D4120020024B1B7803B97047FDF7B8BAD412002054
:205B8000034B1B7803B97047024B1878FDF7E2BAD4120020D312002008B5074B044613B11C
:205BA0000021AFF30080054B1868836A03B19847204600F02FFF00BF000000002C83000060
:205BC00070B50D4D0D4C641BA4100026A64209D10B4D0C4C01F04CFE641BA4100026A642A6
:205BE00005D170BD55F8043B98470136EEE755F8043B98470136F2E7240300202403002022
:205C0000240300202803002038B5104B1D68AB6B0446B3B9182000F095F80246A86320B978
:205C20000B4B0C48422100F05DF80B490B4BC0E900130B4B83600B23838100210120C2E954
:205C40000401AB6B00221C615A6138BDBC02002090830000A78300000E33CDAB34126DE66D
:205C6000ECDE0500174B10B51C68A36BB3B9182000F068F8A06328B90246134B13484E2154
:205C800000F030F8124A134BC0E90023124B83600B23838101220023C0E90423A16B0F487B
:205CA0000A694B690E4C504304FB0300A2FB04345A1C044444F10000C1E9042020F00040E8
:205CC00010BD00BFBC02002090830000A78300000E33CDAB34126DE6ECDE05002DF4515832
:205CE0002D7F954C1FB514461A46094B1B680546D8684CB1074B0091CDE9013406492B469C
:205D000000F00EF801F0E4FC044B1C46F3E700BFBC02002023840000308400005E84000057
:205D20000EB403B5014603AB054853F8042B0068019300F0B9F802B05DF804EB03B0704730
:205D4000BC020020024B0146186800F053B800BFBC02002037B5002948D051F8043C019072
:205D6000002BA1F10404B8BFE41800F085FD204A01981368154633B96360146003B0BDE825
:205D8000304000F07FBDA3420BD921686218934204BF1A685B68636004BF521822602C60C0
:205DA000ECE71A465B680BB1A342FAD911685518A5420BD1246821445418A3421160DDD16F
:205DC0001C685B68536021441160D7E702D90C230360D3E7256861198B4204BF19685B6833
:205DE000636004BF491921605460C7E703B030BDB4120020F8B5CD1C25F0030508350C2D29
:205E000038BF0C25002D064601DBA94203D90C2333600020F8BD00F02FFD21490A68144655
:205E20009CB9204F3B6823B92146304600F092FA38602946304600F08DFA431C23D10C2350
:205E40003360304600F01EFDE3E723685B1B17D40B2B03D923601C44256004E06368A2426B
:205E60000CBF0B605360304600F00CFD04F10B00231D20F00700C21ACCD01B1AA350C9E723
:205E800022466468CCE7C41C24F00304A042E3D0211A304600F05EFA0130DDD1CFE700BF3E
:205EA000B4120020B81200202DE9F04F0D469DB014469846064618B183690BB900F01EFC16
:205EC000894B9D421BD175686B6ED90705D4AB899A0502D4A86D01F038FCAB891B0701D5A5
:205EE0002B69EBB92946304600F096FAC0B16B6EDC070ED54FF0FF301DB0BDE8F08F7B4BD0
:205F00009D4201D1B568DFE7794B9D4208BFF568DAE7AB899805EDD4A86D01F017FCE9E7EA
:205F20000023099320238DF82930CDF80C803023DFF8C0818DF82A304FF0010923469A4654
:205F400013F8012B0AB1252AF9D1BAEB040B0BD05B4622462946304601F03BFB013000F071
:205F6000AA80099A5A4409929AF80030002B00F0A28000234FF0FF32CDE905230AF1010AA5
:205F8000049307938DF853301A935446052214F8011B5848FAF734F9049AD8B9D10644BF6B
:205FA00020238DF85330130744BF2B238DF853309AF800302A2B15D0079A544600204FF08D
:205FC0000A0C214611F8013B303B092B4ED9B0B1079214E0A0EB080309FA03F313430493CF
:205FE000A246D2E7039B191D1B680391002BBBBF5B4242F0020207930793B8BF04922378C1
:206000002E2B0CD163782A2B35D1039B1A1D1B680392002BB8BF4FF0FF3302340593DFF86F
:20602000E4A0217803225046FAF7EAF840B14023A0EB0A0003FA00F0049B0343013404932E
:2060400014F8011B2C488DF828100622FAF7D8F800283FD0294B1BBB039B073323F0070388
:2060600008330393099B3B44099367E70CFB02320C460120A5E700230134059319464FF07A
:206080000A0C204610F8012B303A092A03D9002BC5D00591C3E70CFB012104460123F0E769
:2060A00003AB00932A46164B04A93046AFF300800746781CD6D16B6ED90705D4AB899A059C
:2060C00002D4A86D01F042FBAB895B063FF512AF099811E703AB00932A46094B04A930465C
:2060E00000F012F8E4E700BF5083000070830000308300005F8400006984000000000000D3
:20610000D3750000658400002DE9FF470C469146277E0C99782F80469A4604F1430207D819
:20612000622F0AD8002F00F0D880582F00F0A38004F1420684F842703AE0A7F16303152B18
:20614000F6D801A050F823F0A1610000B56100003161000031610000316100003161000015
:20616000B561000031610000316100003161000031610000C1620000E5610000A362000053
:206180003161000031610000E362000031610000E56100003161000031610000AB6200008D
:2061A0000B681A1D1B680A6004F1420684F842300123A3E0256808682E0600F104030AD56E
:2061C00005680B60002D03DA2D236D4284F843305E480A2319E015F0400F05680B6018BF20
:2061E0002DB2EFE70B682568181D0860280601D51D6802E06906FBD51D8854486F2F0CBFF9
:2062000008230A23002184F843106668A660002EA2BF216821F0040121600DB9002E4DD0A2
:206220001646B5FBF3F103FB1157C75D06F8017D2F46BB420D46F4D9082B0BD12368DF0756
:2062400008D5236961689942DEBF302306F8013C06F1FF36921B2261CDF800A04B4603AA07
:206260002146404601F0C7F901304CD14FF0FF3004B0BDE8F087354884F8457023680E6845
:206280001F0656F8045B0E6014D5D90744BF43F0200323601DB9236823F0200323601023CC
:2062A000B0E7236843F0200323607823284884F84530E3E75E0648BFADB2E6E71646BBE788
:2062C0000B68266860691D1D0D6035061B6801D5186002E07106FBD518800023236116467D
:2062E000BAE70B681A1D0A601E68626800213046F9F786FF08B1801B606063682361002307
:2063000084F84330A8E72369324649464046D0470130ABD023689B0713D4E068039B98424F
:20632000B8BF1846A4E70123324649464046D04701309BD00135E36803995B1AAB42F2DC4C
:20634000EBE7002504F11906F5E700BF708400008184000038B5064D0023044608462B6018
:20636000FFF724FA431C02D12B6803B1236038BD14130020F8B50E461446054618B1836976
:206380000BB900F0BBF9214B9C422BD16C68A369A360A3891A072FD523696BB3236920685D
:2063A000C01A6369F6B28342374604DC2146284600F026F930BBA368013BA36023685A1C53
:2063C00022601E7063690130834204D0A389DB0706D50A2E04D12146284600F011F988B911
:2063E0003846F8BD0A4B9C4201D1AC68CFE7094B9C4208BFEC68CAE72146284600F00CF8D4
:206400000028CBD04FF0FF37EAE700BF508300007083000030830000324B70B51D680646C8
:206420000C4625B1AB6913B9284600F067F92E4B9C420FD16C68A389B4F90C2019072CD466
:20644000DD0611D40923336042F04003A3814FF0FF303EE0254B9C4201D1AC68EBE7244B1B
:206460009C4208BFEC68E6E7580712D5616B41B104F14403994202D03046FFF76BFC002373
:206480006363A38923F02403A3810023636023692360A38943F00803A38123694BB9A3896D
:2064A00003F42073B3F5007F03D02146304600F0A3F9A089B4F90C2010F001030AD00023EC
:2064C000A36063695B42A361236943B910F08000BAD170BD810758BF6369A360F4E7002023
:2064E000F7E700BFBC0200205083000070830000308300008A892DE9F041054610070C469A
:2065000058D44B68002B05DC0B6C002B02DC0020BDE8F081E66A002EF9D0002312F4805298
:206520002F682B6032D0606DA3895A0705D56368C01A636B0BB1236CC01A00230246E66AB0
:20654000216A2846B047431CA38906D129681D292CD82A4ACA40D60728D500226260D904F5
:206560002269226004D5421C01D12B6803B96065616B2F600029CAD004F14403994202D0EA
:206580002846FFF7E7FB00206063C1E7216A01232846B047411CC7D12B68002BC4D01D2B87
:2065A00001D0162B01D12F60B1E7A38943F04003A381ADE70F69002FA9D093070E6808BF7F
:2065C0004B690F6018BF0023A6EB07088B60B8F1000F9CDD216AA66A43463A462846B047D9
:2065E000002806DCA38943F04003A3814FF0FF308EE70744A8EB0008E9E700BF0100402012
:2066000038B50B6905460C4613B90025284638BD18B183690BB900F071F8144B9C421BD12D
:206620006C68B4F90C30002BEFD0626ED00704D4990502D4A06D01F088F828462146FFF777
:2066400059FF636EDA070546E0D4A3899B05DDD4A06D01F07BF8D9E7054B9C4201D1AC686F
:20666000DFE7044B9C4208BFEC68DAE7508300007083000030830000002310B50446C0E9F7
:206680000033C0E90433836081814366C2818361194608225C3000F075FF054B6362054B54
:2066A000A362054BE362054B2462236310BD00BFEB7700000D7800004578000069780000D3
:2066C000014901F022B800BF01660000014801F03CB800BF26130020014801F037B800BF51
:2066E00026130020014801F030B800BF21130020014801F02BB800BF2113002010B50446CD
:20670000FFF7F0FFA3691BB1BDE81040FFF7F0BFC4E912332365134B134A1B68A262A34281
:2067200004BF0123A361204600F020F86060204600F01CF8A060204600F018F80022E0600E
:2067400004216068FFF798FFA06801220921FFF793FFE06802221221FFF78EFF0123A36198
:20676000D2E700BF2C830000C1660000F8B50746FFF7ACFF1E4B1E68B36913B93046FFF7ED
:20678000BDFF4836D6E90134013B03D533680BB33668F7E7B4F90C50D5B9164BE36004F1B2
:2067A0005800656600F0D0FFFFF796FFC4E90155C4E904552560A5610822294604F15C00EE
:2067C00000F0E0FEC4E90D55C4E912552046F8BD6834D9E70421384600F081FF0446306064
:2067E0000028D5D1FFF778FF0C233B60EEE700BF2C8300000100FFFF8B8973B59D07064626
:206800000C4607D504F14703236023610123636102B070BD01AB6A4600F099FF0099054675
:206820003046FFF7E7FA48B9B4F90C309A05EFD423F0030343F00203A381E3E70D4BB36213
:20684000A389206043F08003A381009B6361019B20615BB1B4F90E10304600F067F828B1C1
:20686000A38923F0030343F00103A381A0890543A581CDE7C1660000014800F066BF00BFE9
:2068800022130020014800F061BF00BF22130020024B0146186800F07EBF00BFBC02002058
:2068A00038B5074D00230446084611462B6000F091F8431C02D12B6803B1236038BD00BFD1
:2068C0001413002038B5074D04460846114600222A601A4600F096F8431C02D12B6803B13E
:2068E000236038BD1413002038B5064D0023044608462B6000F04EF8431C02D12B6803B1A4
:20690000236038BD1413002038B5074D00230446084611462B6000F045F8431C02D12B68E8
